-- 1. Tests for pre-generated relation files
-- b-tree index
\! pg_filedump test/index_btree.gp7

*******************************************************************
* PostgreSQL File/Block Formatted Dump Utility
*
* File: test/index_btree.gp7
* Options used: None
*******************************************************************

Block    0 ********************************************************
<Header> -----
 Block Offset: 0x00000000         Offsets: Lower      48 (0x0030)
 Block: Size 32768  Version   14            Upper    32752 (0x7ff0)
 LSN:  logid      0 recoff 0x04fe30e0      Special  32752 (0x7ff0)
 Items:    6                      Free Space: 32704
 Checksum: 0x327e  Prune XID: 0x00000000  Flags: 0x0000 ()
 Length (including item array): 48

 BTree Meta Data:  Magic (0x00053162)   Version (2)
                   Root:     Block (1)  Level (0)
                   FastRoot: Block (1)  Level (0)

<Special Section> -----
 BTree Index Section:
  Flags: 0x0008 (META)
  Blocks: Previous (0)  Next (0)  Level (0)  CycleId (0)


Block    1 ********************************************************
<Header> -----
 Block Offset: 0x00008000         Offsets: Lower     328 (0x0148)
 Block: Size 32768  Version   14            Upper    31536 (0x7b30)
 LSN:  logid      0 recoff 0x04fe3068      Special  32752 (0x7ff0)
 Items:   76                      Free Space: 31208
 Checksum: 0xc380  Prune XID: 0x00000000  Flags: 0x0000 ()
 Length (including item array): 328

<Data> -----
 Item   1 -- Length:   16  Offset: 32736 (0x7fe0)  Flags: NORMAL
 Item   2 -- Length:   16  Offset: 32720 (0x7fd0)  Flags: NORMAL
 Item   3 -- Length:   16  Offset: 32704 (0x7fc0)  Flags: NORMAL
 Item   4 -- Length:   16  Offset: 32688 (0x7fb0)  Flags: NORMAL
 Item   5 -- Length:   16  Offset: 32672 (0x7fa0)  Flags: NORMAL
 Item   6 -- Length:   16  Offset: 32656 (0x7f90)  Flags: NORMAL
 Item   7 -- Length:   16  Offset: 32640 (0x7f80)  Flags: NORMAL
 Item   8 -- Length:   16  Offset: 32624 (0x7f70)  Flags: NORMAL
 Item   9 -- Length:   16  Offset: 32608 (0x7f60)  Flags: NORMAL
 Item  10 -- Length:   16  Offset: 32592 (0x7f50)  Flags: NORMAL
 Item  11 -- Length:   16  Offset: 32576 (0x7f40)  Flags: NORMAL
 Item  12 -- Length:   16  Offset: 32560 (0x7f30)  Flags: NORMAL
 Item  13 -- Length:   16  Offset: 32544 (0x7f20)  Flags: NORMAL
 Item  14 -- Length:   16  Offset: 32528 (0x7f10)  Flags: NORMAL
 Item  15 -- Length:   16  Offset: 32512 (0x7f00)  Flags: NORMAL
 Item  16 -- Length:   16  Offset: 32496 (0x7ef0)  Flags: NORMAL
 Item  17 -- Length:   16  Offset: 32480 (0x7ee0)  Flags: NORMAL
 Item  18 -- Length:   16  Offset: 32464 (0x7ed0)  Flags: NORMAL
 Item  19 -- Length:   16  Offset: 32448 (0x7ec0)  Flags: NORMAL
 Item  20 -- Length:   16  Offset: 32432 (0x7eb0)  Flags: NORMAL
 Item  21 -- Length:   16  Offset: 32416 (0x7ea0)  Flags: NORMAL
 Item  22 -- Length:   16  Offset: 32400 (0x7e90)  Flags: NORMAL
 Item  23 -- Length:   16  Offset: 32384 (0x7e80)  Flags: NORMAL
 Item  24 -- Length:   16  Offset: 32368 (0x7e70)  Flags: NORMAL
 Item  25 -- Length:   16  Offset: 32352 (0x7e60)  Flags: NORMAL
 Item  26 -- Length:   16  Offset: 32336 (0x7e50)  Flags: NORMAL
 Item  27 -- Length:   16  Offset: 32320 (0x7e40)  Flags: NORMAL
 Item  28 -- Length:   16  Offset: 32304 (0x7e30)  Flags: NORMAL
 Item  29 -- Length:   16  Offset: 32288 (0x7e20)  Flags: NORMAL
 Item  30 -- Length:   16  Offset: 32272 (0x7e10)  Flags: NORMAL
 Item  31 -- Length:   16  Offset: 32256 (0x7e00)  Flags: NORMAL
 Item  32 -- Length:   16  Offset: 32240 (0x7df0)  Flags: NORMAL
 Item  33 -- Length:   16  Offset: 32224 (0x7de0)  Flags: NORMAL
 Item  34 -- Length:   16  Offset: 32208 (0x7dd0)  Flags: NORMAL
 Item  35 -- Length:   16  Offset: 32192 (0x7dc0)  Flags: NORMAL
 Item  36 -- Length:   16  Offset: 32176 (0x7db0)  Flags: NORMAL
 Item  37 -- Length:   16  Offset: 32160 (0x7da0)  Flags: NORMAL
 Item  38 -- Length:   16  Offset: 32144 (0x7d90)  Flags: NORMAL
 Item  39 -- Length:   16  Offset: 32128 (0x7d80)  Flags: NORMAL
 Item  40 -- Length:   16  Offset: 32112 (0x7d70)  Flags: NORMAL
 Item  41 -- Length:   16  Offset: 32096 (0x7d60)  Flags: NORMAL
 Item  42 -- Length:   16  Offset: 32080 (0x7d50)  Flags: NORMAL
 Item  43 -- Length:   16  Offset: 32064 (0x7d40)  Flags: NORMAL
 Item  44 -- Length:   16  Offset: 32048 (0x7d30)  Flags: NORMAL
 Item  45 -- Length:   16  Offset: 32032 (0x7d20)  Flags: NORMAL
 Item  46 -- Length:   16  Offset: 32016 (0x7d10)  Flags: NORMAL
 Item  47 -- Length:   16  Offset: 32000 (0x7d00)  Flags: NORMAL
 Item  48 -- Length:   16  Offset: 31984 (0x7cf0)  Flags: NORMAL
 Item  49 -- Length:   16  Offset: 31968 (0x7ce0)  Flags: NORMAL
 Item  50 -- Length:   16  Offset: 31952 (0x7cd0)  Flags: NORMAL
 Item  51 -- Length:   16  Offset: 31936 (0x7cc0)  Flags: NORMAL
 Item  52 -- Length:   16  Offset: 31920 (0x7cb0)  Flags: NORMAL
 Item  53 -- Length:   16  Offset: 31904 (0x7ca0)  Flags: NORMAL
 Item  54 -- Length:   16  Offset: 31888 (0x7c90)  Flags: NORMAL
 Item  55 -- Length:   16  Offset: 31872 (0x7c80)  Flags: NORMAL
 Item  56 -- Length:   16  Offset: 31856 (0x7c70)  Flags: NORMAL
 Item  57 -- Length:   16  Offset: 31840 (0x7c60)  Flags: NORMAL
 Item  58 -- Length:   16  Offset: 31824 (0x7c50)  Flags: NORMAL
 Item  59 -- Length:   16  Offset: 31808 (0x7c40)  Flags: NORMAL
 Item  60 -- Length:   16  Offset: 31792 (0x7c30)  Flags: NORMAL
 Item  61 -- Length:   16  Offset: 31776 (0x7c20)  Flags: NORMAL
 Item  62 -- Length:   16  Offset: 31760 (0x7c10)  Flags: NORMAL
 Item  63 -- Length:   16  Offset: 31744 (0x7c00)  Flags: NORMAL
 Item  64 -- Length:   16  Offset: 31728 (0x7bf0)  Flags: NORMAL
 Item  65 -- Length:   16  Offset: 31712 (0x7be0)  Flags: NORMAL
 Item  66 -- Length:   16  Offset: 31696 (0x7bd0)  Flags: NORMAL
 Item  67 -- Length:   16  Offset: 31680 (0x7bc0)  Flags: NORMAL
 Item  68 -- Length:   16  Offset: 31664 (0x7bb0)  Flags: NORMAL
 Item  69 -- Length:   16  Offset: 31648 (0x7ba0)  Flags: NORMAL
 Item  70 -- Length:   16  Offset: 31632 (0x7b90)  Flags: NORMAL
 Item  71 -- Length:   16  Offset: 31616 (0x7b80)  Flags: NORMAL
 Item  72 -- Length:   16  Offset: 31600 (0x7b70)  Flags: NORMAL
 Item  73 -- Length:   16  Offset: 31584 (0x7b60)  Flags: NORMAL
 Item  74 -- Length:   16  Offset: 31568 (0x7b50)  Flags: NORMAL
 Item  75 -- Length:   16  Offset: 31552 (0x7b40)  Flags: NORMAL
 Item  76 -- Length:   16  Offset: 31536 (0x7b30)  Flags: NORMAL

<Special Section> -----
 BTree Index Section:
  Flags: 0x0003 (LEAF|ROOT)
  Blocks: Previous (0)  Next (0)  Level (0)  CycleId (0)


*** End of File Encountered. Last Block Read: 1 ***
-- bitmap index
\! pg_filedump -i -B test/index_bitmap.gp7

*******************************************************************
* PostgreSQL File/Block Formatted Dump Utility
*
* File: test/index_bitmap.gp7
* Options used: -i -B
*******************************************************************

Block    0 ********************************************************
<Header> -----
 Block Offset: 0x00000000         Offsets: Lower      24 (0x0018)
 Block: Size 32768  Version   14            Upper    32768 (0x8000)
 LSN:  logid      0 recoff 0x0a105ea0      Special  32768 (0x8000)
 Items:    0                      Free Space: 32744
 Checksum: 0xa3f7  Prune XID: 0x00000000  Flags: 0x0000 ()
 Length (including item array): 24

 Bitmap Meta Data: Magic (0x4249544d)   Version (2)
                   HeapId (49886)  IndexId(49888)
                   LastLovPage (1)


Block    1 ********************************************************
<Header> -----
 Block Offset: 0x00008000         Offsets: Lower      36 (0x0024)
 Block: Size 32768  Version   14            Upper    32624 (0x7f70)
 LSN:  logid      0 recoff 0x0a1170c0      Special  32768 (0x8000)
 Items:    3                      Free Space: 32588
 Checksum: 0xeaf6  Prune XID: 0x00000000  Flags: 0x0000 ()
 Length (including item array): 36

<Data> -----
 Item   1 -- Length:   48  Offset: 32720 (0x7fd0)  Flags: NORMAL
  LOV head: 4294967295   LOV tail: 4294967295   Last tid:: 0   Last setbit: 0  
  Last complete word: "ff ff ff ff ff ff ff ff"   Last word: "00 00 00 00 00 00 00 00" 
  Last complete word filled: 0   Last word filled: 0

 Item   2 -- Length:   48  Offset: 32672 (0x7fa0)  Flags: NORMAL
  LOV head: 4294967295   LOV tail: 4294967295   Last tid:: 64   Last setbit: 100  
  Last complete word: "80 00 00 00 00 00 00 01"   Last word: "00 00 00 0f ff ff ff ff" 
  Last complete word filled: 1   Last word filled: 0

 Item   3 -- Length:   48  Offset: 32624 (0x7f70)  Flags: NORMAL
  LOV head: 2   LOV tail: 2   Last tid:: 192   Last setbit: 200  
  Last complete word: "80 00 00 00 00 00 00 01"   Last word: "00 00 00 00 00 00 00 ff" 
  Last complete word filled: 1   Last word filled: 0



Block    2 ********************************************************
<Header> -----
 Block Offset: 0x00010000         Offsets: Lower      24 (0x0018)
 Block: Size 32768  Version   14            Upper    32752 (0x7ff0)
 LSN:  logid      0 recoff 0x0a116b40      Special  32752 (0x7ff0)
 Items:    0                      Free Space: 32728
 Checksum: 0x9878  Prune XID: 0x00000000  Flags: 0x0000 ()
 Length (including item array): 24

<Data> -----
Word 0:  "00 00 00 00 00 00 00 01"   Compressed: 1
Word 1:  "ff ff ff f0 00 00 00 00"   Compressed: 0

<Special Section> -----
 Bitmap Index Section:
  Num of used words: 2 
  Tid of last bit: 128 
  Next bitmap page: 4294967295 


*** End of File Encountered. Last Block Read: 2 ***
-- create table <name> (c1 int, c2 text)
\! pg_filedump test/heap.gp7

*******************************************************************
* PostgreSQL File/Block Formatted Dump Utility
*
* File: test/heap.gp7
* Options used: None
*******************************************************************

Block    0 ********************************************************
<Header> -----
 Block Offset: 0x00000000         Offsets: Lower     328 (0x0148)
 Block: Size 32768  Version   14            Upper    29808 (0x7470)
 LSN:  logid      0 recoff 0x04f9e1c8      Special  32768 (0x8000)
 Items:   76                      Free Space: 29480
 Checksum: 0xf7a0  Prune XID: 0x00000000  Flags: 0x0000 ()
 Length (including item array): 328

<Data> -----
 Item   1 -- Length:   32  Offset: 32736 (0x7fe0)  Flags: NORMAL
 Item   2 -- Length:   32  Offset: 32704 (0x7fc0)  Flags: NORMAL
 Item   3 -- Length:   32  Offset: 32672 (0x7fa0)  Flags: NORMAL
 Item   4 -- Length:   32  Offset: 32640 (0x7f80)  Flags: NORMAL
 Item   5 -- Length:   32  Offset: 32608 (0x7f60)  Flags: NORMAL
 Item   6 -- Length:   33  Offset: 32568 (0x7f38)  Flags: NORMAL
 Item   7 -- Length:   33  Offset: 32528 (0x7f10)  Flags: NORMAL
 Item   8 -- Length:   33  Offset: 32488 (0x7ee8)  Flags: NORMAL
 Item   9 -- Length:   33  Offset: 32448 (0x7ec0)  Flags: NORMAL
 Item  10 -- Length:   33  Offset: 32408 (0x7e98)  Flags: NORMAL
 Item  11 -- Length:   33  Offset: 32368 (0x7e70)  Flags: NORMAL
 Item  12 -- Length:   33  Offset: 32328 (0x7e48)  Flags: NORMAL
 Item  13 -- Length:   33  Offset: 32288 (0x7e20)  Flags: NORMAL
 Item  14 -- Length:   33  Offset: 32248 (0x7df8)  Flags: NORMAL
 Item  15 -- Length:   33  Offset: 32208 (0x7dd0)  Flags: NORMAL
 Item  16 -- Length:   33  Offset: 32168 (0x7da8)  Flags: NORMAL
 Item  17 -- Length:   33  Offset: 32128 (0x7d80)  Flags: NORMAL
 Item  18 -- Length:   33  Offset: 32088 (0x7d58)  Flags: NORMAL
 Item  19 -- Length:   33  Offset: 32048 (0x7d30)  Flags: NORMAL
 Item  20 -- Length:   33  Offset: 32008 (0x7d08)  Flags: NORMAL
 Item  21 -- Length:   33  Offset: 31968 (0x7ce0)  Flags: NORMAL
 Item  22 -- Length:   33  Offset: 31928 (0x7cb8)  Flags: NORMAL
 Item  23 -- Length:   33  Offset: 31888 (0x7c90)  Flags: NORMAL
 Item  24 -- Length:   33  Offset: 31848 (0x7c68)  Flags: NORMAL
 Item  25 -- Length:   33  Offset: 31808 (0x7c40)  Flags: NORMAL
 Item  26 -- Length:   33  Offset: 31768 (0x7c18)  Flags: NORMAL
 Item  27 -- Length:   33  Offset: 31728 (0x7bf0)  Flags: NORMAL
 Item  28 -- Length:   33  Offset: 31688 (0x7bc8)  Flags: NORMAL
 Item  29 -- Length:   33  Offset: 31648 (0x7ba0)  Flags: NORMAL
 Item  30 -- Length:   33  Offset: 31608 (0x7b78)  Flags: NORMAL
 Item  31 -- Length:   33  Offset: 31568 (0x7b50)  Flags: NORMAL
 Item  32 -- Length:   33  Offset: 31528 (0x7b28)  Flags: NORMAL
 Item  33 -- Length:   33  Offset: 31488 (0x7b00)  Flags: NORMAL
 Item  34 -- Length:   33  Offset: 31448 (0x7ad8)  Flags: NORMAL
 Item  35 -- Length:   33  Offset: 31408 (0x7ab0)  Flags: NORMAL
 Item  36 -- Length:   33  Offset: 31368 (0x7a88)  Flags: NORMAL
 Item  37 -- Length:   33  Offset: 31328 (0x7a60)  Flags: NORMAL
 Item  38 -- Length:   33  Offset: 31288 (0x7a38)  Flags: NORMAL
 Item  39 -- Length:   32  Offset: 31256 (0x7a18)  Flags: NORMAL
 Item  40 -- Length:   32  Offset: 31224 (0x79f8)  Flags: NORMAL
 Item  41 -- Length:   32  Offset: 31192 (0x79d8)  Flags: NORMAL
 Item  42 -- Length:   32  Offset: 31160 (0x79b8)  Flags: NORMAL
 Item  43 -- Length:   32  Offset: 31128 (0x7998)  Flags: NORMAL
 Item  44 -- Length:   33  Offset: 31088 (0x7970)  Flags: NORMAL
 Item  45 -- Length:   33  Offset: 31048 (0x7948)  Flags: NORMAL
 Item  46 -- Length:   33  Offset: 31008 (0x7920)  Flags: NORMAL
 Item  47 -- Length:   33  Offset: 30968 (0x78f8)  Flags: NORMAL
 Item  48 -- Length:   33  Offset: 30928 (0x78d0)  Flags: NORMAL
 Item  49 -- Length:   33  Offset: 30888 (0x78a8)  Flags: NORMAL
 Item  50 -- Length:   33  Offset: 30848 (0x7880)  Flags: NORMAL
 Item  51 -- Length:   33  Offset: 30808 (0x7858)  Flags: NORMAL
 Item  52 -- Length:   33  Offset: 30768 (0x7830)  Flags: NORMAL
 Item  53 -- Length:   33  Offset: 30728 (0x7808)  Flags: NORMAL
 Item  54 -- Length:   33  Offset: 30688 (0x77e0)  Flags: NORMAL
 Item  55 -- Length:   33  Offset: 30648 (0x77b8)  Flags: NORMAL
 Item  56 -- Length:   33  Offset: 30608 (0x7790)  Flags: NORMAL
 Item  57 -- Length:   33  Offset: 30568 (0x7768)  Flags: NORMAL
 Item  58 -- Length:   33  Offset: 30528 (0x7740)  Flags: NORMAL
 Item  59 -- Length:   33  Offset: 30488 (0x7718)  Flags: NORMAL
 Item  60 -- Length:   33  Offset: 30448 (0x76f0)  Flags: NORMAL
 Item  61 -- Length:   33  Offset: 30408 (0x76c8)  Flags: NORMAL
 Item  62 -- Length:   33  Offset: 30368 (0x76a0)  Flags: NORMAL
 Item  63 -- Length:   33  Offset: 30328 (0x7678)  Flags: NORMAL
 Item  64 -- Length:   33  Offset: 30288 (0x7650)  Flags: NORMAL
 Item  65 -- Length:   33  Offset: 30248 (0x7628)  Flags: NORMAL
 Item  66 -- Length:   33  Offset: 30208 (0x7600)  Flags: NORMAL
 Item  67 -- Length:   33  Offset: 30168 (0x75d8)  Flags: NORMAL
 Item  68 -- Length:   33  Offset: 30128 (0x75b0)  Flags: NORMAL
 Item  69 -- Length:   33  Offset: 30088 (0x7588)  Flags: NORMAL
 Item  70 -- Length:   33  Offset: 30048 (0x7560)  Flags: NORMAL
 Item  71 -- Length:   33  Offset: 30008 (0x7538)  Flags: NORMAL
 Item  72 -- Length:   33  Offset: 29968 (0x7510)  Flags: NORMAL
 Item  73 -- Length:   33  Offset: 29928 (0x74e8)  Flags: NORMAL
 Item  74 -- Length:   33  Offset: 29888 (0x74c0)  Flags: NORMAL
 Item  75 -- Length:   33  Offset: 29848 (0x7498)  Flags: NORMAL
 Item  76 -- Length:   33  Offset: 29808 (0x7470)  Flags: NORMAL


*** End of File Encountered. Last Block Read: 0 ***
\! pg_filedump -d test/heap.gp7

*******************************************************************
* PostgreSQL File/Block Formatted Dump Utility
*
* File: test/heap.gp7
* Options used: -d
*******************************************************************

Block    0 ********************************************************
  0000: 00000000 c8e1f904 a0f70000 48017074  ............H.pt
  0010: 00800e80 00000000 e0ff4000 c0ff4000  ..........@...@.
  0020: a0ff4000 80ff4000 60ff4000 38ff4200  ..@...@.`.@.8.B.
  0030: 10ff4200 e8fe4200 c0fe4200 98fe4200  ..B...B...B...B.
  0040: 70fe4200 48fe4200 20fe4200 f8fd4200  p.B.H.B. .B...B.
  0050: d0fd4200 a8fd4200 80fd4200 58fd4200  ..B...B...B.X.B.
  0060: 30fd4200 08fd4200 e0fc4200 b8fc4200  0.B...B...B...B.
  0070: 90fc4200 68fc4200 40fc4200 18fc4200  ..B.h.B.@.B...B.
  0080: f0fb4200 c8fb4200 a0fb4200 78fb4200  ..B...B...B.x.B.
  0090: 50fb4200 28fb4200 00fb4200 d8fa4200  P.B.(.B...B...B.
  00a0: b0fa4200 88fa4200 60fa4200 38fa4200  ..B...B.`.B.8.B.
  00b0: 18fa4000 f8f94000 d8f94000 b8f94000  ..@...@...@...@.
  00c0: 98f94000 70f94200 48f94200 20f94200  ..@.p.B.H.B. .B.
  00d0: f8f84200 d0f84200 a8f84200 80f84200  ..B...B...B...B.
  00e0: 58f84200 30f84200 08f84200 e0f74200  X.B.0.B...B...B.
  00f0: b8f74200 90f74200 68f74200 40f74200  ..B...B.h.B.@.B.
  0100: 18f74200 f0f64200 c8f64200 a0f64200  ..B...B...B...B.
  0110: 78f64200 50f64200 28f64200 00f64200  x.B.P.B.(.B...B.
  0120: d8f54200 b0f54200 88f54200 60f54200  ..B...B...B.`.B.
  0130: 38f54200 10f54200 e8f44200 c0f44200  8.B...B...B...B.
  0140: 98f44200 70f44200 00000000 00000000  ..B.p.B.........
  0150: 00000000 00000000 00000000 00000000  ................
  0160: 00000000 00000000 00000000 00000000  ................
  0170: 00000000 00000000 00000000 00000000  ................
  0180: 00000000 00000000 00000000 00000000  ................
  0190: 00000000 00000000 00000000 00000000  ................
  01a0: 00000000 00000000 00000000 00000000  ................
  01b0: 00000000 00000000 00000000 00000000  ................
  01c0: 00000000 00000000 00000000 00000000  ................
  01d0: 00000000 00000000 00000000 00000000  ................
  01e0: 00000000 00000000 00000000 00000000  ................
  01f0: 00000000 00000000 00000000 00000000  ................
  0200: 00000000 00000000 00000000 00000000  ................
  0210: 00000000 00000000 00000000 00000000  ................
  0220: 00000000 00000000 00000000 00000000  ................
  0230: 00000000 00000000 00000000 00000000  ................
  0240: 00000000 00000000 00000000 00000000  ................
  0250: 00000000 00000000 00000000 00000000  ................
  0260: 00000000 00000000 00000000 00000000  ................
  0270: 00000000 00000000 00000000 00000000  ................
  0280: 00000000 00000000 00000000 00000000  ................
  0290: 00000000 00000000 00000000 00000000  ................
  02a0: 00000000 00000000 00000000 00000000  ................
  02b0: 00000000 00000000 00000000 00000000  ................
  02c0: 00000000 00000000 00000000 00000000  ................
  02d0: 00000000 00000000 00000000 00000000  ................
  02e0: 00000000 00000000 00000000 00000000  ................
  02f0: 00000000 00000000 00000000 00000000  ................
  0300: 00000000 00000000 00000000 00000000  ................
  0310: 00000000 00000000 00000000 00000000  ................
  0320: 00000000 00000000 00000000 00000000  ................
  0330: 00000000 00000000 00000000 00000000  ................
  0340: 00000000 00000000 00000000 00000000  ................
  0350: 00000000 00000000 00000000 00000000  ................
  0360: 00000000 00000000 00000000 00000000  ................
  0370: 00000000 00000000 00000000 00000000  ................
  0380: 00000000 00000000 00000000 00000000  ................
  0390: 00000000 00000000 00000000 00000000  ................
  03a0: 00000000 00000000 00000000 00000000  ................
  03b0: 00000000 00000000 00000000 00000000  ................
  03c0: 00000000 00000000 00000000 00000000  ................
  03d0: 00000000 00000000 00000000 00000000  ................
  03e0: 00000000 00000000 00000000 00000000  ................
  03f0: 00000000 00000000 00000000 00000000  ................
  0400: 00000000 00000000 00000000 00000000  ................
  0410: 00000000 00000000 00000000 00000000  ................
  0420: 00000000 00000000 00000000 00000000  ................
  0430: 00000000 00000000 00000000 00000000  ................
  0440: 00000000 00000000 00000000 00000000  ................
  0450: 00000000 00000000 00000000 00000000  ................
  0460: 00000000 00000000 00000000 00000000  ................
  0470: 00000000 00000000 00000000 00000000  ................
  0480: 00000000 00000000 00000000 00000000  ................
  0490: 00000000 00000000 00000000 00000000  ................
  04a0: 00000000 00000000 00000000 00000000  ................
  04b0: 00000000 00000000 00000000 00000000  ................
  04c0: 00000000 00000000 00000000 00000000  ................
  04d0: 00000000 00000000 00000000 00000000  ................
  04e0: 00000000 00000000 00000000 00000000  ................
  04f0: 00000000 00000000 00000000 00000000  ................
  0500: 00000000 00000000 00000000 00000000  ................
  0510: 00000000 00000000 00000000 00000000  ................
  0520: 00000000 00000000 00000000 00000000  ................
  0530: 00000000 00000000 00000000 00000000  ................
  0540: 00000000 00000000 00000000 00000000  ................
  0550: 00000000 00000000 00000000 00000000  ................
  0560: 00000000 00000000 00000000 00000000  ................
  0570: 00000000 00000000 00000000 00000000  ................
  0580: 00000000 00000000 00000000 00000000  ................
  0590: 00000000 00000000 00000000 00000000  ................
  05a0: 00000000 00000000 00000000 00000000  ................
  05b0: 00000000 00000000 00000000 00000000  ................
  05c0: 00000000 00000000 00000000 00000000  ................
  05d0: 00000000 00000000 00000000 00000000  ................
  05e0: 00000000 00000000 00000000 00000000  ................
  05f0: 00000000 00000000 00000000 00000000  ................
  0600: 00000000 00000000 00000000 00000000  ................
  0610: 00000000 00000000 00000000 00000000  ................
  0620: 00000000 00000000 00000000 00000000  ................
  0630: 00000000 00000000 00000000 00000000  ................
  0640: 00000000 00000000 00000000 00000000  ................
  0650: 00000000 00000000 00000000 00000000  ................
  0660: 00000000 00000000 00000000 00000000  ................
  0670: 00000000 00000000 00000000 00000000  ................
  0680: 00000000 00000000 00000000 00000000  ................
  0690: 00000000 00000000 00000000 00000000  ................
  06a0: 00000000 00000000 00000000 00000000  ................
  06b0: 00000000 00000000 00000000 00000000  ................
  06c0: 00000000 00000000 00000000 00000000  ................
  06d0: 00000000 00000000 00000000 00000000  ................
  06e0: 00000000 00000000 00000000 00000000  ................
  06f0: 00000000 00000000 00000000 00000000  ................
  0700: 00000000 00000000 00000000 00000000  ................
  0710: 00000000 00000000 00000000 00000000  ................
  0720: 00000000 00000000 00000000 00000000  ................
  0730: 00000000 00000000 00000000 00000000  ................
  0740: 00000000 00000000 00000000 00000000  ................
  0750: 00000000 00000000 00000000 00000000  ................
  0760: 00000000 00000000 00000000 00000000  ................
  0770: 00000000 00000000 00000000 00000000  ................
  0780: 00000000 00000000 00000000 00000000  ................
  0790: 00000000 00000000 00000000 00000000  ................
  07a0: 00000000 00000000 00000000 00000000  ................
  07b0: 00000000 00000000 00000000 00000000  ................
  07c0: 00000000 00000000 00000000 00000000  ................
  07d0: 00000000 00000000 00000000 00000000  ................
  07e0: 00000000 00000000 00000000 00000000  ................
  07f0: 00000000 00000000 00000000 00000000  ................
  0800: 00000000 00000000 00000000 00000000  ................
  0810: 00000000 00000000 00000000 00000000  ................
  0820: 00000000 00000000 00000000 00000000  ................
  0830: 00000000 00000000 00000000 00000000  ................
  0840: 00000000 00000000 00000000 00000000  ................
  0850: 00000000 00000000 00000000 00000000  ................
  0860: 00000000 00000000 00000000 00000000  ................
  0870: 00000000 00000000 00000000 00000000  ................
  0880: 00000000 00000000 00000000 00000000  ................
  0890: 00000000 00000000 00000000 00000000  ................
  08a0: 00000000 00000000 00000000 00000000  ................
  08b0: 00000000 00000000 00000000 00000000  ................
  08c0: 00000000 00000000 00000000 00000000  ................
  08d0: 00000000 00000000 00000000 00000000  ................
  08e0: 00000000 00000000 00000000 00000000  ................
  08f0: 00000000 00000000 00000000 00000000  ................
  0900: 00000000 00000000 00000000 00000000  ................
  0910: 00000000 00000000 00000000 00000000  ................
  0920: 00000000 00000000 00000000 00000000  ................
  0930: 00000000 00000000 00000000 00000000  ................
  0940: 00000000 00000000 00000000 00000000  ................
  0950: 00000000 00000000 00000000 00000000  ................
  0960: 00000000 00000000 00000000 00000000  ................
  0970: 00000000 00000000 00000000 00000000  ................
  0980: 00000000 00000000 00000000 00000000  ................
  0990: 00000000 00000000 00000000 00000000  ................
  09a0: 00000000 00000000 00000000 00000000  ................
  09b0: 00000000 00000000 00000000 00000000  ................
  09c0: 00000000 00000000 00000000 00000000  ................
  09d0: 00000000 00000000 00000000 00000000  ................
  09e0: 00000000 00000000 00000000 00000000  ................
  09f0: 00000000 00000000 00000000 00000000  ................
  0a00: 00000000 00000000 00000000 00000000  ................
  0a10: 00000000 00000000 00000000 00000000  ................
  0a20: 00000000 00000000 00000000 00000000  ................
  0a30: 00000000 00000000 00000000 00000000  ................
  0a40: 00000000 00000000 00000000 00000000  ................
  0a50: 00000000 00000000 00000000 00000000  ................
  0a60: 00000000 00000000 00000000 00000000  ................
  0a70: 00000000 00000000 00000000 00000000  ................
  0a80: 00000000 00000000 00000000 00000000  ................
  0a90: 00000000 00000000 00000000 00000000  ................
  0aa0: 00000000 00000000 00000000 00000000  ................
  0ab0: 00000000 00000000 00000000 00000000  ................
  0ac0: 00000000 00000000 00000000 00000000  ................
  0ad0: 00000000 00000000 00000000 00000000  ................
  0ae0: 00000000 00000000 00000000 00000000  ................
  0af0: 00000000 00000000 00000000 00000000  ................
  0b00: 00000000 00000000 00000000 00000000  ................
  0b10: 00000000 00000000 00000000 00000000  ................
  0b20: 00000000 00000000 00000000 00000000  ................
  0b30: 00000000 00000000 00000000 00000000  ................
  0b40: 00000000 00000000 00000000 00000000  ................
  0b50: 00000000 00000000 00000000 00000000  ................
  0b60: 00000000 00000000 00000000 00000000  ................
  0b70: 00000000 00000000 00000000 00000000  ................
  0b80: 00000000 00000000 00000000 00000000  ................
  0b90: 00000000 00000000 00000000 00000000  ................
  0ba0: 00000000 00000000 00000000 00000000  ................
  0bb0: 00000000 00000000 00000000 00000000  ................
  0bc0: 00000000 00000000 00000000 00000000  ................
  0bd0: 00000000 00000000 00000000 00000000  ................
  0be0: 00000000 00000000 00000000 00000000  ................
  0bf0: 00000000 00000000 00000000 00000000  ................
  0c00: 00000000 00000000 00000000 00000000  ................
  0c10: 00000000 00000000 00000000 00000000  ................
  0c20: 00000000 00000000 00000000 00000000  ................
  0c30: 00000000 00000000 00000000 00000000  ................
  0c40: 00000000 00000000 00000000 00000000  ................
  0c50: 00000000 00000000 00000000 00000000  ................
  0c60: 00000000 00000000 00000000 00000000  ................
  0c70: 00000000 00000000 00000000 00000000  ................
  0c80: 00000000 00000000 00000000 00000000  ................
  0c90: 00000000 00000000 00000000 00000000  ................
  0ca0: 00000000 00000000 00000000 00000000  ................
  0cb0: 00000000 00000000 00000000 00000000  ................
  0cc0: 00000000 00000000 00000000 00000000  ................
  0cd0: 00000000 00000000 00000000 00000000  ................
  0ce0: 00000000 00000000 00000000 00000000  ................
  0cf0: 00000000 00000000 00000000 00000000  ................
  0d00: 00000000 00000000 00000000 00000000  ................
  0d10: 00000000 00000000 00000000 00000000  ................
  0d20: 00000000 00000000 00000000 00000000  ................
  0d30: 00000000 00000000 00000000 00000000  ................
  0d40: 00000000 00000000 00000000 00000000  ................
  0d50: 00000000 00000000 00000000 00000000  ................
  0d60: 00000000 00000000 00000000 00000000  ................
  0d70: 00000000 00000000 00000000 00000000  ................
  0d80: 00000000 00000000 00000000 00000000  ................
  0d90: 00000000 00000000 00000000 00000000  ................
  0da0: 00000000 00000000 00000000 00000000  ................
  0db0: 00000000 00000000 00000000 00000000  ................
  0dc0: 00000000 00000000 00000000 00000000  ................
  0dd0: 00000000 00000000 00000000 00000000  ................
  0de0: 00000000 00000000 00000000 00000000  ................
  0df0: 00000000 00000000 00000000 00000000  ................
  0e00: 00000000 00000000 00000000 00000000  ................
  0e10: 00000000 00000000 00000000 00000000  ................
  0e20: 00000000 00000000 00000000 00000000  ................
  0e30: 00000000 00000000 00000000 00000000  ................
  0e40: 00000000 00000000 00000000 00000000  ................
  0e50: 00000000 00000000 00000000 00000000  ................
  0e60: 00000000 00000000 00000000 00000000  ................
  0e70: 00000000 00000000 00000000 00000000  ................
  0e80: 00000000 00000000 00000000 00000000  ................
  0e90: 00000000 00000000 00000000 00000000  ................
  0ea0: 00000000 00000000 00000000 00000000  ................
  0eb0: 00000000 00000000 00000000 00000000  ................
  0ec0: 00000000 00000000 00000000 00000000  ................
  0ed0: 00000000 00000000 00000000 00000000  ................
  0ee0: 00000000 00000000 00000000 00000000  ................
  0ef0: 00000000 00000000 00000000 00000000  ................
  0f00: 00000000 00000000 00000000 00000000  ................
  0f10: 00000000 00000000 00000000 00000000  ................
  0f20: 00000000 00000000 00000000 00000000  ................
  0f30: 00000000 00000000 00000000 00000000  ................
  0f40: 00000000 00000000 00000000 00000000  ................
  0f50: 00000000 00000000 00000000 00000000  ................
  0f60: 00000000 00000000 00000000 00000000  ................
  0f70: 00000000 00000000 00000000 00000000  ................
  0f80: 00000000 00000000 00000000 00000000  ................
  0f90: 00000000 00000000 00000000 00000000  ................
  0fa0: 00000000 00000000 00000000 00000000  ................
  0fb0: 00000000 00000000 00000000 00000000  ................
  0fc0: 00000000 00000000 00000000 00000000  ................
  0fd0: 00000000 00000000 00000000 00000000  ................
  0fe0: 00000000 00000000 00000000 00000000  ................
  0ff0: 00000000 00000000 00000000 00000000  ................
  1000: 00000000 00000000 00000000 00000000  ................
  1010: 00000000 00000000 00000000 00000000  ................
  1020: 00000000 00000000 00000000 00000000  ................
  1030: 00000000 00000000 00000000 00000000  ................
  1040: 00000000 00000000 00000000 00000000  ................
  1050: 00000000 00000000 00000000 00000000  ................
  1060: 00000000 00000000 00000000 00000000  ................
  1070: 00000000 00000000 00000000 00000000  ................
  1080: 00000000 00000000 00000000 00000000  ................
  1090: 00000000 00000000 00000000 00000000  ................
  10a0: 00000000 00000000 00000000 00000000  ................
  10b0: 00000000 00000000 00000000 00000000  ................
  10c0: 00000000 00000000 00000000 00000000  ................
  10d0: 00000000 00000000 00000000 00000000  ................
  10e0: 00000000 00000000 00000000 00000000  ................
  10f0: 00000000 00000000 00000000 00000000  ................
  1100: 00000000 00000000 00000000 00000000  ................
  1110: 00000000 00000000 00000000 00000000  ................
  1120: 00000000 00000000 00000000 00000000  ................
  1130: 00000000 00000000 00000000 00000000  ................
  1140: 00000000 00000000 00000000 00000000  ................
  1150: 00000000 00000000 00000000 00000000  ................
  1160: 00000000 00000000 00000000 00000000  ................
  1170: 00000000 00000000 00000000 00000000  ................
  1180: 00000000 00000000 00000000 00000000  ................
  1190: 00000000 00000000 00000000 00000000  ................
  11a0: 00000000 00000000 00000000 00000000  ................
  11b0: 00000000 00000000 00000000 00000000  ................
  11c0: 00000000 00000000 00000000 00000000  ................
  11d0: 00000000 00000000 00000000 00000000  ................
  11e0: 00000000 00000000 00000000 00000000  ................
  11f0: 00000000 00000000 00000000 00000000  ................
  1200: 00000000 00000000 00000000 00000000  ................
  1210: 00000000 00000000 00000000 00000000  ................
  1220: 00000000 00000000 00000000 00000000  ................
  1230: 00000000 00000000 00000000 00000000  ................
  1240: 00000000 00000000 00000000 00000000  ................
  1250: 00000000 00000000 00000000 00000000  ................
  1260: 00000000 00000000 00000000 00000000  ................
  1270: 00000000 00000000 00000000 00000000  ................
  1280: 00000000 00000000 00000000 00000000  ................
  1290: 00000000 00000000 00000000 00000000  ................
  12a0: 00000000 00000000 00000000 00000000  ................
  12b0: 00000000 00000000 00000000 00000000  ................
  12c0: 00000000 00000000 00000000 00000000  ................
  12d0: 00000000 00000000 00000000 00000000  ................
  12e0: 00000000 00000000 00000000 00000000  ................
  12f0: 00000000 00000000 00000000 00000000  ................
  1300: 00000000 00000000 00000000 00000000  ................
  1310: 00000000 00000000 00000000 00000000  ................
  1320: 00000000 00000000 00000000 00000000  ................
  1330: 00000000 00000000 00000000 00000000  ................
  1340: 00000000 00000000 00000000 00000000  ................
  1350: 00000000 00000000 00000000 00000000  ................
  1360: 00000000 00000000 00000000 00000000  ................
  1370: 00000000 00000000 00000000 00000000  ................
  1380: 00000000 00000000 00000000 00000000  ................
  1390: 00000000 00000000 00000000 00000000  ................
  13a0: 00000000 00000000 00000000 00000000  ................
  13b0: 00000000 00000000 00000000 00000000  ................
  13c0: 00000000 00000000 00000000 00000000  ................
  13d0: 00000000 00000000 00000000 00000000  ................
  13e0: 00000000 00000000 00000000 00000000  ................
  13f0: 00000000 00000000 00000000 00000000  ................
  1400: 00000000 00000000 00000000 00000000  ................
  1410: 00000000 00000000 00000000 00000000  ................
  1420: 00000000 00000000 00000000 00000000  ................
  1430: 00000000 00000000 00000000 00000000  ................
  1440: 00000000 00000000 00000000 00000000  ................
  1450: 00000000 00000000 00000000 00000000  ................
  1460: 00000000 00000000 00000000 00000000  ................
  1470: 00000000 00000000 00000000 00000000  ................
  1480: 00000000 00000000 00000000 00000000  ................
  1490: 00000000 00000000 00000000 00000000  ................
  14a0: 00000000 00000000 00000000 00000000  ................
  14b0: 00000000 00000000 00000000 00000000  ................
  14c0: 00000000 00000000 00000000 00000000  ................
  14d0: 00000000 00000000 00000000 00000000  ................
  14e0: 00000000 00000000 00000000 00000000  ................
  14f0: 00000000 00000000 00000000 00000000  ................
  1500: 00000000 00000000 00000000 00000000  ................
  1510: 00000000 00000000 00000000 00000000  ................
  1520: 00000000 00000000 00000000 00000000  ................
  1530: 00000000 00000000 00000000 00000000  ................
  1540: 00000000 00000000 00000000 00000000  ................
  1550: 00000000 00000000 00000000 00000000  ................
  1560: 00000000 00000000 00000000 00000000  ................
  1570: 00000000 00000000 00000000 00000000  ................
  1580: 00000000 00000000 00000000 00000000  ................
  1590: 00000000 00000000 00000000 00000000  ................
  15a0: 00000000 00000000 00000000 00000000  ................
  15b0: 00000000 00000000 00000000 00000000  ................
  15c0: 00000000 00000000 00000000 00000000  ................
  15d0: 00000000 00000000 00000000 00000000  ................
  15e0: 00000000 00000000 00000000 00000000  ................
  15f0: 00000000 00000000 00000000 00000000  ................
  1600: 00000000 00000000 00000000 00000000  ................
  1610: 00000000 00000000 00000000 00000000  ................
  1620: 00000000 00000000 00000000 00000000  ................
  1630: 00000000 00000000 00000000 00000000  ................
  1640: 00000000 00000000 00000000 00000000  ................
  1650: 00000000 00000000 00000000 00000000  ................
  1660: 00000000 00000000 00000000 00000000  ................
  1670: 00000000 00000000 00000000 00000000  ................
  1680: 00000000 00000000 00000000 00000000  ................
  1690: 00000000 00000000 00000000 00000000  ................
  16a0: 00000000 00000000 00000000 00000000  ................
  16b0: 00000000 00000000 00000000 00000000  ................
  16c0: 00000000 00000000 00000000 00000000  ................
  16d0: 00000000 00000000 00000000 00000000  ................
  16e0: 00000000 00000000 00000000 00000000  ................
  16f0: 00000000 00000000 00000000 00000000  ................
  1700: 00000000 00000000 00000000 00000000  ................
  1710: 00000000 00000000 00000000 00000000  ................
  1720: 00000000 00000000 00000000 00000000  ................
  1730: 00000000 00000000 00000000 00000000  ................
  1740: 00000000 00000000 00000000 00000000  ................
  1750: 00000000 00000000 00000000 00000000  ................
  1760: 00000000 00000000 00000000 00000000  ................
  1770: 00000000 00000000 00000000 00000000  ................
  1780: 00000000 00000000 00000000 00000000  ................
  1790: 00000000 00000000 00000000 00000000  ................
  17a0: 00000000 00000000 00000000 00000000  ................
  17b0: 00000000 00000000 00000000 00000000  ................
  17c0: 00000000 00000000 00000000 00000000  ................
  17d0: 00000000 00000000 00000000 00000000  ................
  17e0: 00000000 00000000 00000000 00000000  ................
  17f0: 00000000 00000000 00000000 00000000  ................
  1800: 00000000 00000000 00000000 00000000  ................
  1810: 00000000 00000000 00000000 00000000  ................
  1820: 00000000 00000000 00000000 00000000  ................
  1830: 00000000 00000000 00000000 00000000  ................
  1840: 00000000 00000000 00000000 00000000  ................
  1850: 00000000 00000000 00000000 00000000  ................
  1860: 00000000 00000000 00000000 00000000  ................
  1870: 00000000 00000000 00000000 00000000  ................
  1880: 00000000 00000000 00000000 00000000  ................
  1890: 00000000 00000000 00000000 00000000  ................
  18a0: 00000000 00000000 00000000 00000000  ................
  18b0: 00000000 00000000 00000000 00000000  ................
  18c0: 00000000 00000000 00000000 00000000  ................
  18d0: 00000000 00000000 00000000 00000000  ................
  18e0: 00000000 00000000 00000000 00000000  ................
  18f0: 00000000 00000000 00000000 00000000  ................
  1900: 00000000 00000000 00000000 00000000  ................
  1910: 00000000 00000000 00000000 00000000  ................
  1920: 00000000 00000000 00000000 00000000  ................
  1930: 00000000 00000000 00000000 00000000  ................
  1940: 00000000 00000000 00000000 00000000  ................
  1950: 00000000 00000000 00000000 00000000  ................
  1960: 00000000 00000000 00000000 00000000  ................
  1970: 00000000 00000000 00000000 00000000  ................
  1980: 00000000 00000000 00000000 00000000  ................
  1990: 00000000 00000000 00000000 00000000  ................
  19a0: 00000000 00000000 00000000 00000000  ................
  19b0: 00000000 00000000 00000000 00000000  ................
  19c0: 00000000 00000000 00000000 00000000  ................
  19d0: 00000000 00000000 00000000 00000000  ................
  19e0: 00000000 00000000 00000000 00000000  ................
  19f0: 00000000 00000000 00000000 00000000  ................
  1a00: 00000000 00000000 00000000 00000000  ................
  1a10: 00000000 00000000 00000000 00000000  ................
  1a20: 00000000 00000000 00000000 00000000  ................
  1a30: 00000000 00000000 00000000 00000000  ................
  1a40: 00000000 00000000 00000000 00000000  ................
  1a50: 00000000 00000000 00000000 00000000  ................
  1a60: 00000000 00000000 00000000 00000000  ................
  1a70: 00000000 00000000 00000000 00000000  ................
  1a80: 00000000 00000000 00000000 00000000  ................
  1a90: 00000000 00000000 00000000 00000000  ................
  1aa0: 00000000 00000000 00000000 00000000  ................
  1ab0: 00000000 00000000 00000000 00000000  ................
  1ac0: 00000000 00000000 00000000 00000000  ................
  1ad0: 00000000 00000000 00000000 00000000  ................
  1ae0: 00000000 00000000 00000000 00000000  ................
  1af0: 00000000 00000000 00000000 00000000  ................
  1b00: 00000000 00000000 00000000 00000000  ................
  1b10: 00000000 00000000 00000000 00000000  ................
  1b20: 00000000 00000000 00000000 00000000  ................
  1b30: 00000000 00000000 00000000 00000000  ................
  1b40: 00000000 00000000 00000000 00000000  ................
  1b50: 00000000 00000000 00000000 00000000  ................
  1b60: 00000000 00000000 00000000 00000000  ................
  1b70: 00000000 00000000 00000000 00000000  ................
  1b80: 00000000 00000000 00000000 00000000  ................
  1b90: 00000000 00000000 00000000 00000000  ................
  1ba0: 00000000 00000000 00000000 00000000  ................
  1bb0: 00000000 00000000 00000000 00000000  ................
  1bc0: 00000000 00000000 00000000 00000000  ................
  1bd0: 00000000 00000000 00000000 00000000  ................
  1be0: 00000000 00000000 00000000 00000000  ................
  1bf0: 00000000 00000000 00000000 00000000  ................
  1c00: 00000000 00000000 00000000 00000000  ................
  1c10: 00000000 00000000 00000000 00000000  ................
  1c20: 00000000 00000000 00000000 00000000  ................
  1c30: 00000000 00000000 00000000 00000000  ................
  1c40: 00000000 00000000 00000000 00000000  ................
  1c50: 00000000 00000000 00000000 00000000  ................
  1c60: 00000000 00000000 00000000 00000000  ................
  1c70: 00000000 00000000 00000000 00000000  ................
  1c80: 00000000 00000000 00000000 00000000  ................
  1c90: 00000000 00000000 00000000 00000000  ................
  1ca0: 00000000 00000000 00000000 00000000  ................
  1cb0: 00000000 00000000 00000000 00000000  ................
  1cc0: 00000000 00000000 00000000 00000000  ................
  1cd0: 00000000 00000000 00000000 00000000  ................
  1ce0: 00000000 00000000 00000000 00000000  ................
  1cf0: 00000000 00000000 00000000 00000000  ................
  1d00: 00000000 00000000 00000000 00000000  ................
  1d10: 00000000 00000000 00000000 00000000  ................
  1d20: 00000000 00000000 00000000 00000000  ................
  1d30: 00000000 00000000 00000000 00000000  ................
  1d40: 00000000 00000000 00000000 00000000  ................
  1d50: 00000000 00000000 00000000 00000000  ................
  1d60: 00000000 00000000 00000000 00000000  ................
  1d70: 00000000 00000000 00000000 00000000  ................
  1d80: 00000000 00000000 00000000 00000000  ................
  1d90: 00000000 00000000 00000000 00000000  ................
  1da0: 00000000 00000000 00000000 00000000  ................
  1db0: 00000000 00000000 00000000 00000000  ................
  1dc0: 00000000 00000000 00000000 00000000  ................
  1dd0: 00000000 00000000 00000000 00000000  ................
  1de0: 00000000 00000000 00000000 00000000  ................
  1df0: 00000000 00000000 00000000 00000000  ................
  1e00: 00000000 00000000 00000000 00000000  ................
  1e10: 00000000 00000000 00000000 00000000  ................
  1e20: 00000000 00000000 00000000 00000000  ................
  1e30: 00000000 00000000 00000000 00000000  ................
  1e40: 00000000 00000000 00000000 00000000  ................
  1e50: 00000000 00000000 00000000 00000000  ................
  1e60: 00000000 00000000 00000000 00000000  ................
  1e70: 00000000 00000000 00000000 00000000  ................
  1e80: 00000000 00000000 00000000 00000000  ................
  1e90: 00000000 00000000 00000000 00000000  ................
  1ea0: 00000000 00000000 00000000 00000000  ................
  1eb0: 00000000 00000000 00000000 00000000  ................
  1ec0: 00000000 00000000 00000000 00000000  ................
  1ed0: 00000000 00000000 00000000 00000000  ................
  1ee0: 00000000 00000000 00000000 00000000  ................
  1ef0: 00000000 00000000 00000000 00000000  ................
  1f00: 00000000 00000000 00000000 00000000  ................
  1f10: 00000000 00000000 00000000 00000000  ................
  1f20: 00000000 00000000 00000000 00000000  ................
  1f30: 00000000 00000000 00000000 00000000  ................
  1f40: 00000000 00000000 00000000 00000000  ................
  1f50: 00000000 00000000 00000000 00000000  ................
  1f60: 00000000 00000000 00000000 00000000  ................
  1f70: 00000000 00000000 00000000 00000000  ................
  1f80: 00000000 00000000 00000000 00000000  ................
  1f90: 00000000 00000000 00000000 00000000  ................
  1fa0: 00000000 00000000 00000000 00000000  ................
  1fb0: 00000000 00000000 00000000 00000000  ................
  1fc0: 00000000 00000000 00000000 00000000  ................
  1fd0: 00000000 00000000 00000000 00000000  ................
  1fe0: 00000000 00000000 00000000 00000000  ................
  1ff0: 00000000 00000000 00000000 00000000  ................
  2000: 00000000 00000000 00000000 00000000  ................
  2010: 00000000 00000000 00000000 00000000  ................
  2020: 00000000 00000000 00000000 00000000  ................
  2030: 00000000 00000000 00000000 00000000  ................
  2040: 00000000 00000000 00000000 00000000  ................
  2050: 00000000 00000000 00000000 00000000  ................
  2060: 00000000 00000000 00000000 00000000  ................
  2070: 00000000 00000000 00000000 00000000  ................
  2080: 00000000 00000000 00000000 00000000  ................
  2090: 00000000 00000000 00000000 00000000  ................
  20a0: 00000000 00000000 00000000 00000000  ................
  20b0: 00000000 00000000 00000000 00000000  ................
  20c0: 00000000 00000000 00000000 00000000  ................
  20d0: 00000000 00000000 00000000 00000000  ................
  20e0: 00000000 00000000 00000000 00000000  ................
  20f0: 00000000 00000000 00000000 00000000  ................
  2100: 00000000 00000000 00000000 00000000  ................
  2110: 00000000 00000000 00000000 00000000  ................
  2120: 00000000 00000000 00000000 00000000  ................
  2130: 00000000 00000000 00000000 00000000  ................
  2140: 00000000 00000000 00000000 00000000  ................
  2150: 00000000 00000000 00000000 00000000  ................
  2160: 00000000 00000000 00000000 00000000  ................
  2170: 00000000 00000000 00000000 00000000  ................
  2180: 00000000 00000000 00000000 00000000  ................
  2190: 00000000 00000000 00000000 00000000  ................
  21a0: 00000000 00000000 00000000 00000000  ................
  21b0: 00000000 00000000 00000000 00000000  ................
  21c0: 00000000 00000000 00000000 00000000  ................
  21d0: 00000000 00000000 00000000 00000000  ................
  21e0: 00000000 00000000 00000000 00000000  ................
  21f0: 00000000 00000000 00000000 00000000  ................
  2200: 00000000 00000000 00000000 00000000  ................
  2210: 00000000 00000000 00000000 00000000  ................
  2220: 00000000 00000000 00000000 00000000  ................
  2230: 00000000 00000000 00000000 00000000  ................
  2240: 00000000 00000000 00000000 00000000  ................
  2250: 00000000 00000000 00000000 00000000  ................
  2260: 00000000 00000000 00000000 00000000  ................
  2270: 00000000 00000000 00000000 00000000  ................
  2280: 00000000 00000000 00000000 00000000  ................
  2290: 00000000 00000000 00000000 00000000  ................
  22a0: 00000000 00000000 00000000 00000000  ................
  22b0: 00000000 00000000 00000000 00000000  ................
  22c0: 00000000 00000000 00000000 00000000  ................
  22d0: 00000000 00000000 00000000 00000000  ................
  22e0: 00000000 00000000 00000000 00000000  ................
  22f0: 00000000 00000000 00000000 00000000  ................
  2300: 00000000 00000000 00000000 00000000  ................
  2310: 00000000 00000000 00000000 00000000  ................
  2320: 00000000 00000000 00000000 00000000  ................
  2330: 00000000 00000000 00000000 00000000  ................
  2340: 00000000 00000000 00000000 00000000  ................
  2350: 00000000 00000000 00000000 00000000  ................
  2360: 00000000 00000000 00000000 00000000  ................
  2370: 00000000 00000000 00000000 00000000  ................
  2380: 00000000 00000000 00000000 00000000  ................
  2390: 00000000 00000000 00000000 00000000  ................
  23a0: 00000000 00000000 00000000 00000000  ................
  23b0: 00000000 00000000 00000000 00000000  ................
  23c0: 00000000 00000000 00000000 00000000  ................
  23d0: 00000000 00000000 00000000 00000000  ................
  23e0: 00000000 00000000 00000000 00000000  ................
  23f0: 00000000 00000000 00000000 00000000  ................
  2400: 00000000 00000000 00000000 00000000  ................
  2410: 00000000 00000000 00000000 00000000  ................
  2420: 00000000 00000000 00000000 00000000  ................
  2430: 00000000 00000000 00000000 00000000  ................
  2440: 00000000 00000000 00000000 00000000  ................
  2450: 00000000 00000000 00000000 00000000  ................
  2460: 00000000 00000000 00000000 00000000  ................
  2470: 00000000 00000000 00000000 00000000  ................
  2480: 00000000 00000000 00000000 00000000  ................
  2490: 00000000 00000000 00000000 00000000  ................
  24a0: 00000000 00000000 00000000 00000000  ................
  24b0: 00000000 00000000 00000000 00000000  ................
  24c0: 00000000 00000000 00000000 00000000  ................
  24d0: 00000000 00000000 00000000 00000000  ................
  24e0: 00000000 00000000 00000000 00000000  ................
  24f0: 00000000 00000000 00000000 00000000  ................
  2500: 00000000 00000000 00000000 00000000  ................
  2510: 00000000 00000000 00000000 00000000  ................
  2520: 00000000 00000000 00000000 00000000  ................
  2530: 00000000 00000000 00000000 00000000  ................
  2540: 00000000 00000000 00000000 00000000  ................
  2550: 00000000 00000000 00000000 00000000  ................
  2560: 00000000 00000000 00000000 00000000  ................
  2570: 00000000 00000000 00000000 00000000  ................
  2580: 00000000 00000000 00000000 00000000  ................
  2590: 00000000 00000000 00000000 00000000  ................
  25a0: 00000000 00000000 00000000 00000000  ................
  25b0: 00000000 00000000 00000000 00000000  ................
  25c0: 00000000 00000000 00000000 00000000  ................
  25d0: 00000000 00000000 00000000 00000000  ................
  25e0: 00000000 00000000 00000000 00000000  ................
  25f0: 00000000 00000000 00000000 00000000  ................
  2600: 00000000 00000000 00000000 00000000  ................
  2610: 00000000 00000000 00000000 00000000  ................
  2620: 00000000 00000000 00000000 00000000  ................
  2630: 00000000 00000000 00000000 00000000  ................
  2640: 00000000 00000000 00000000 00000000  ................
  2650: 00000000 00000000 00000000 00000000  ................
  2660: 00000000 00000000 00000000 00000000  ................
  2670: 00000000 00000000 00000000 00000000  ................
  2680: 00000000 00000000 00000000 00000000  ................
  2690: 00000000 00000000 00000000 00000000  ................
  26a0: 00000000 00000000 00000000 00000000  ................
  26b0: 00000000 00000000 00000000 00000000  ................
  26c0: 00000000 00000000 00000000 00000000  ................
  26d0: 00000000 00000000 00000000 00000000  ................
  26e0: 00000000 00000000 00000000 00000000  ................
  26f0: 00000000 00000000 00000000 00000000  ................
  2700: 00000000 00000000 00000000 00000000  ................
  2710: 00000000 00000000 00000000 00000000  ................
  2720: 00000000 00000000 00000000 00000000  ................
  2730: 00000000 00000000 00000000 00000000  ................
  2740: 00000000 00000000 00000000 00000000  ................
  2750: 00000000 00000000 00000000 00000000  ................
  2760: 00000000 00000000 00000000 00000000  ................
  2770: 00000000 00000000 00000000 00000000  ................
  2780: 00000000 00000000 00000000 00000000  ................
  2790: 00000000 00000000 00000000 00000000  ................
  27a0: 00000000 00000000 00000000 00000000  ................
  27b0: 00000000 00000000 00000000 00000000  ................
  27c0: 00000000 00000000 00000000 00000000  ................
  27d0: 00000000 00000000 00000000 00000000  ................
  27e0: 00000000 00000000 00000000 00000000  ................
  27f0: 00000000 00000000 00000000 00000000  ................
  2800: 00000000 00000000 00000000 00000000  ................
  2810: 00000000 00000000 00000000 00000000  ................
  2820: 00000000 00000000 00000000 00000000  ................
  2830: 00000000 00000000 00000000 00000000  ................
  2840: 00000000 00000000 00000000 00000000  ................
  2850: 00000000 00000000 00000000 00000000  ................
  2860: 00000000 00000000 00000000 00000000  ................
  2870: 00000000 00000000 00000000 00000000  ................
  2880: 00000000 00000000 00000000 00000000  ................
  2890: 00000000 00000000 00000000 00000000  ................
  28a0: 00000000 00000000 00000000 00000000  ................
  28b0: 00000000 00000000 00000000 00000000  ................
  28c0: 00000000 00000000 00000000 00000000  ................
  28d0: 00000000 00000000 00000000 00000000  ................
  28e0: 00000000 00000000 00000000 00000000  ................
  28f0: 00000000 00000000 00000000 00000000  ................
  2900: 00000000 00000000 00000000 00000000  ................
  2910: 00000000 00000000 00000000 00000000  ................
  2920: 00000000 00000000 00000000 00000000  ................
  2930: 00000000 00000000 00000000 00000000  ................
  2940: 00000000 00000000 00000000 00000000  ................
  2950: 00000000 00000000 00000000 00000000  ................
  2960: 00000000 00000000 00000000 00000000  ................
  2970: 00000000 00000000 00000000 00000000  ................
  2980: 00000000 00000000 00000000 00000000  ................
  2990: 00000000 00000000 00000000 00000000  ................
  29a0: 00000000 00000000 00000000 00000000  ................
  29b0: 00000000 00000000 00000000 00000000  ................
  29c0: 00000000 00000000 00000000 00000000  ................
  29d0: 00000000 00000000 00000000 00000000  ................
  29e0: 00000000 00000000 00000000 00000000  ................
  29f0: 00000000 00000000 00000000 00000000  ................
  2a00: 00000000 00000000 00000000 00000000  ................
  2a10: 00000000 00000000 00000000 00000000  ................
  2a20: 00000000 00000000 00000000 00000000  ................
  2a30: 00000000 00000000 00000000 00000000  ................
  2a40: 00000000 00000000 00000000 00000000  ................
  2a50: 00000000 00000000 00000000 00000000  ................
  2a60: 00000000 00000000 00000000 00000000  ................
  2a70: 00000000 00000000 00000000 00000000  ................
  2a80: 00000000 00000000 00000000 00000000  ................
  2a90: 00000000 00000000 00000000 00000000  ................
  2aa0: 00000000 00000000 00000000 00000000  ................
  2ab0: 00000000 00000000 00000000 00000000  ................
  2ac0: 00000000 00000000 00000000 00000000  ................
  2ad0: 00000000 00000000 00000000 00000000  ................
  2ae0: 00000000 00000000 00000000 00000000  ................
  2af0: 00000000 00000000 00000000 00000000  ................
  2b00: 00000000 00000000 00000000 00000000  ................
  2b10: 00000000 00000000 00000000 00000000  ................
  2b20: 00000000 00000000 00000000 00000000  ................
  2b30: 00000000 00000000 00000000 00000000  ................
  2b40: 00000000 00000000 00000000 00000000  ................
  2b50: 00000000 00000000 00000000 00000000  ................
  2b60: 00000000 00000000 00000000 00000000  ................
  2b70: 00000000 00000000 00000000 00000000  ................
  2b80: 00000000 00000000 00000000 00000000  ................
  2b90: 00000000 00000000 00000000 00000000  ................
  2ba0: 00000000 00000000 00000000 00000000  ................
  2bb0: 00000000 00000000 00000000 00000000  ................
  2bc0: 00000000 00000000 00000000 00000000  ................
  2bd0: 00000000 00000000 00000000 00000000  ................
  2be0: 00000000 00000000 00000000 00000000  ................
  2bf0: 00000000 00000000 00000000 00000000  ................
  2c00: 00000000 00000000 00000000 00000000  ................
  2c10: 00000000 00000000 00000000 00000000  ................
  2c20: 00000000 00000000 00000000 00000000  ................
  2c30: 00000000 00000000 00000000 00000000  ................
  2c40: 00000000 00000000 00000000 00000000  ................
  2c50: 00000000 00000000 00000000 00000000  ................
  2c60: 00000000 00000000 00000000 00000000  ................
  2c70: 00000000 00000000 00000000 00000000  ................
  2c80: 00000000 00000000 00000000 00000000  ................
  2c90: 00000000 00000000 00000000 00000000  ................
  2ca0: 00000000 00000000 00000000 00000000  ................
  2cb0: 00000000 00000000 00000000 00000000  ................
  2cc0: 00000000 00000000 00000000 00000000  ................
  2cd0: 00000000 00000000 00000000 00000000  ................
  2ce0: 00000000 00000000 00000000 00000000  ................
  2cf0: 00000000 00000000 00000000 00000000  ................
  2d00: 00000000 00000000 00000000 00000000  ................
  2d10: 00000000 00000000 00000000 00000000  ................
  2d20: 00000000 00000000 00000000 00000000  ................
  2d30: 00000000 00000000 00000000 00000000  ................
  2d40: 00000000 00000000 00000000 00000000  ................
  2d50: 00000000 00000000 00000000 00000000  ................
  2d60: 00000000 00000000 00000000 00000000  ................
  2d70: 00000000 00000000 00000000 00000000  ................
  2d80: 00000000 00000000 00000000 00000000  ................
  2d90: 00000000 00000000 00000000 00000000  ................
  2da0: 00000000 00000000 00000000 00000000  ................
  2db0: 00000000 00000000 00000000 00000000  ................
  2dc0: 00000000 00000000 00000000 00000000  ................
  2dd0: 00000000 00000000 00000000 00000000  ................
  2de0: 00000000 00000000 00000000 00000000  ................
  2df0: 00000000 00000000 00000000 00000000  ................
  2e00: 00000000 00000000 00000000 00000000  ................
  2e10: 00000000 00000000 00000000 00000000  ................
  2e20: 00000000 00000000 00000000 00000000  ................
  2e30: 00000000 00000000 00000000 00000000  ................
  2e40: 00000000 00000000 00000000 00000000  ................
  2e50: 00000000 00000000 00000000 00000000  ................
  2e60: 00000000 00000000 00000000 00000000  ................
  2e70: 00000000 00000000 00000000 00000000  ................
  2e80: 00000000 00000000 00000000 00000000  ................
  2e90: 00000000 00000000 00000000 00000000  ................
  2ea0: 00000000 00000000 00000000 00000000  ................
  2eb0: 00000000 00000000 00000000 00000000  ................
  2ec0: 00000000 00000000 00000000 00000000  ................
  2ed0: 00000000 00000000 00000000 00000000  ................
  2ee0: 00000000 00000000 00000000 00000000  ................
  2ef0: 00000000 00000000 00000000 00000000  ................
  2f00: 00000000 00000000 00000000 00000000  ................
  2f10: 00000000 00000000 00000000 00000000  ................
  2f20: 00000000 00000000 00000000 00000000  ................
  2f30: 00000000 00000000 00000000 00000000  ................
  2f40: 00000000 00000000 00000000 00000000  ................
  2f50: 00000000 00000000 00000000 00000000  ................
  2f60: 00000000 00000000 00000000 00000000  ................
  2f70: 00000000 00000000 00000000 00000000  ................
  2f80: 00000000 00000000 00000000 00000000  ................
  2f90: 00000000 00000000 00000000 00000000  ................
  2fa0: 00000000 00000000 00000000 00000000  ................
  2fb0: 00000000 00000000 00000000 00000000  ................
  2fc0: 00000000 00000000 00000000 00000000  ................
  2fd0: 00000000 00000000 00000000 00000000  ................
  2fe0: 00000000 00000000 00000000 00000000  ................
  2ff0: 00000000 00000000 00000000 00000000  ................
  3000: 00000000 00000000 00000000 00000000  ................
  3010: 00000000 00000000 00000000 00000000  ................
  3020: 00000000 00000000 00000000 00000000  ................
  3030: 00000000 00000000 00000000 00000000  ................
  3040: 00000000 00000000 00000000 00000000  ................
  3050: 00000000 00000000 00000000 00000000  ................
  3060: 00000000 00000000 00000000 00000000  ................
  3070: 00000000 00000000 00000000 00000000  ................
  3080: 00000000 00000000 00000000 00000000  ................
  3090: 00000000 00000000 00000000 00000000  ................
  30a0: 00000000 00000000 00000000 00000000  ................
  30b0: 00000000 00000000 00000000 00000000  ................
  30c0: 00000000 00000000 00000000 00000000  ................
  30d0: 00000000 00000000 00000000 00000000  ................
  30e0: 00000000 00000000 00000000 00000000  ................
  30f0: 00000000 00000000 00000000 00000000  ................
  3100: 00000000 00000000 00000000 00000000  ................
  3110: 00000000 00000000 00000000 00000000  ................
  3120: 00000000 00000000 00000000 00000000  ................
  3130: 00000000 00000000 00000000 00000000  ................
  3140: 00000000 00000000 00000000 00000000  ................
  3150: 00000000 00000000 00000000 00000000  ................
  3160: 00000000 00000000 00000000 00000000  ................
  3170: 00000000 00000000 00000000 00000000  ................
  3180: 00000000 00000000 00000000 00000000  ................
  3190: 00000000 00000000 00000000 00000000  ................
  31a0: 00000000 00000000 00000000 00000000  ................
  31b0: 00000000 00000000 00000000 00000000  ................
  31c0: 00000000 00000000 00000000 00000000  ................
  31d0: 00000000 00000000 00000000 00000000  ................
  31e0: 00000000 00000000 00000000 00000000  ................
  31f0: 00000000 00000000 00000000 00000000  ................
  3200: 00000000 00000000 00000000 00000000  ................
  3210: 00000000 00000000 00000000 00000000  ................
  3220: 00000000 00000000 00000000 00000000  ................
  3230: 00000000 00000000 00000000 00000000  ................
  3240: 00000000 00000000 00000000 00000000  ................
  3250: 00000000 00000000 00000000 00000000  ................
  3260: 00000000 00000000 00000000 00000000  ................
  3270: 00000000 00000000 00000000 00000000  ................
  3280: 00000000 00000000 00000000 00000000  ................
  3290: 00000000 00000000 00000000 00000000  ................
  32a0: 00000000 00000000 00000000 00000000  ................
  32b0: 00000000 00000000 00000000 00000000  ................
  32c0: 00000000 00000000 00000000 00000000  ................
  32d0: 00000000 00000000 00000000 00000000  ................
  32e0: 00000000 00000000 00000000 00000000  ................
  32f0: 00000000 00000000 00000000 00000000  ................
  3300: 00000000 00000000 00000000 00000000  ................
  3310: 00000000 00000000 00000000 00000000  ................
  3320: 00000000 00000000 00000000 00000000  ................
  3330: 00000000 00000000 00000000 00000000  ................
  3340: 00000000 00000000 00000000 00000000  ................
  3350: 00000000 00000000 00000000 00000000  ................
  3360: 00000000 00000000 00000000 00000000  ................
  3370: 00000000 00000000 00000000 00000000  ................
  3380: 00000000 00000000 00000000 00000000  ................
  3390: 00000000 00000000 00000000 00000000  ................
  33a0: 00000000 00000000 00000000 00000000  ................
  33b0: 00000000 00000000 00000000 00000000  ................
  33c0: 00000000 00000000 00000000 00000000  ................
  33d0: 00000000 00000000 00000000 00000000  ................
  33e0: 00000000 00000000 00000000 00000000  ................
  33f0: 00000000 00000000 00000000 00000000  ................
  3400: 00000000 00000000 00000000 00000000  ................
  3410: 00000000 00000000 00000000 00000000  ................
  3420: 00000000 00000000 00000000 00000000  ................
  3430: 00000000 00000000 00000000 00000000  ................
  3440: 00000000 00000000 00000000 00000000  ................
  3450: 00000000 00000000 00000000 00000000  ................
  3460: 00000000 00000000 00000000 00000000  ................
  3470: 00000000 00000000 00000000 00000000  ................
  3480: 00000000 00000000 00000000 00000000  ................
  3490: 00000000 00000000 00000000 00000000  ................
  34a0: 00000000 00000000 00000000 00000000  ................
  34b0: 00000000 00000000 00000000 00000000  ................
  34c0: 00000000 00000000 00000000 00000000  ................
  34d0: 00000000 00000000 00000000 00000000  ................
  34e0: 00000000 00000000 00000000 00000000  ................
  34f0: 00000000 00000000 00000000 00000000  ................
  3500: 00000000 00000000 00000000 00000000  ................
  3510: 00000000 00000000 00000000 00000000  ................
  3520: 00000000 00000000 00000000 00000000  ................
  3530: 00000000 00000000 00000000 00000000  ................
  3540: 00000000 00000000 00000000 00000000  ................
  3550: 00000000 00000000 00000000 00000000  ................
  3560: 00000000 00000000 00000000 00000000  ................
  3570: 00000000 00000000 00000000 00000000  ................
  3580: 00000000 00000000 00000000 00000000  ................
  3590: 00000000 00000000 00000000 00000000  ................
  35a0: 00000000 00000000 00000000 00000000  ................
  35b0: 00000000 00000000 00000000 00000000  ................
  35c0: 00000000 00000000 00000000 00000000  ................
  35d0: 00000000 00000000 00000000 00000000  ................
  35e0: 00000000 00000000 00000000 00000000  ................
  35f0: 00000000 00000000 00000000 00000000  ................
  3600: 00000000 00000000 00000000 00000000  ................
  3610: 00000000 00000000 00000000 00000000  ................
  3620: 00000000 00000000 00000000 00000000  ................
  3630: 00000000 00000000 00000000 00000000  ................
  3640: 00000000 00000000 00000000 00000000  ................
  3650: 00000000 00000000 00000000 00000000  ................
  3660: 00000000 00000000 00000000 00000000  ................
  3670: 00000000 00000000 00000000 00000000  ................
  3680: 00000000 00000000 00000000 00000000  ................
  3690: 00000000 00000000 00000000 00000000  ................
  36a0: 00000000 00000000 00000000 00000000  ................
  36b0: 00000000 00000000 00000000 00000000  ................
  36c0: 00000000 00000000 00000000 00000000  ................
  36d0: 00000000 00000000 00000000 00000000  ................
  36e0: 00000000 00000000 00000000 00000000  ................
  36f0: 00000000 00000000 00000000 00000000  ................
  3700: 00000000 00000000 00000000 00000000  ................
  3710: 00000000 00000000 00000000 00000000  ................
  3720: 00000000 00000000 00000000 00000000  ................
  3730: 00000000 00000000 00000000 00000000  ................
  3740: 00000000 00000000 00000000 00000000  ................
  3750: 00000000 00000000 00000000 00000000  ................
  3760: 00000000 00000000 00000000 00000000  ................
  3770: 00000000 00000000 00000000 00000000  ................
  3780: 00000000 00000000 00000000 00000000  ................
  3790: 00000000 00000000 00000000 00000000  ................
  37a0: 00000000 00000000 00000000 00000000  ................
  37b0: 00000000 00000000 00000000 00000000  ................
  37c0: 00000000 00000000 00000000 00000000  ................
  37d0: 00000000 00000000 00000000 00000000  ................
  37e0: 00000000 00000000 00000000 00000000  ................
  37f0: 00000000 00000000 00000000 00000000  ................
  3800: 00000000 00000000 00000000 00000000  ................
  3810: 00000000 00000000 00000000 00000000  ................
  3820: 00000000 00000000 00000000 00000000  ................
  3830: 00000000 00000000 00000000 00000000  ................
  3840: 00000000 00000000 00000000 00000000  ................
  3850: 00000000 00000000 00000000 00000000  ................
  3860: 00000000 00000000 00000000 00000000  ................
  3870: 00000000 00000000 00000000 00000000  ................
  3880: 00000000 00000000 00000000 00000000  ................
  3890: 00000000 00000000 00000000 00000000  ................
  38a0: 00000000 00000000 00000000 00000000  ................
  38b0: 00000000 00000000 00000000 00000000  ................
  38c0: 00000000 00000000 00000000 00000000  ................
  38d0: 00000000 00000000 00000000 00000000  ................
  38e0: 00000000 00000000 00000000 00000000  ................
  38f0: 00000000 00000000 00000000 00000000  ................
  3900: 00000000 00000000 00000000 00000000  ................
  3910: 00000000 00000000 00000000 00000000  ................
  3920: 00000000 00000000 00000000 00000000  ................
  3930: 00000000 00000000 00000000 00000000  ................
  3940: 00000000 00000000 00000000 00000000  ................
  3950: 00000000 00000000 00000000 00000000  ................
  3960: 00000000 00000000 00000000 00000000  ................
  3970: 00000000 00000000 00000000 00000000  ................
  3980: 00000000 00000000 00000000 00000000  ................
  3990: 00000000 00000000 00000000 00000000  ................
  39a0: 00000000 00000000 00000000 00000000  ................
  39b0: 00000000 00000000 00000000 00000000  ................
  39c0: 00000000 00000000 00000000 00000000  ................
  39d0: 00000000 00000000 00000000 00000000  ................
  39e0: 00000000 00000000 00000000 00000000  ................
  39f0: 00000000 00000000 00000000 00000000  ................
  3a00: 00000000 00000000 00000000 00000000  ................
  3a10: 00000000 00000000 00000000 00000000  ................
  3a20: 00000000 00000000 00000000 00000000  ................
  3a30: 00000000 00000000 00000000 00000000  ................
  3a40: 00000000 00000000 00000000 00000000  ................
  3a50: 00000000 00000000 00000000 00000000  ................
  3a60: 00000000 00000000 00000000 00000000  ................
  3a70: 00000000 00000000 00000000 00000000  ................
  3a80: 00000000 00000000 00000000 00000000  ................
  3a90: 00000000 00000000 00000000 00000000  ................
  3aa0: 00000000 00000000 00000000 00000000  ................
  3ab0: 00000000 00000000 00000000 00000000  ................
  3ac0: 00000000 00000000 00000000 00000000  ................
  3ad0: 00000000 00000000 00000000 00000000  ................
  3ae0: 00000000 00000000 00000000 00000000  ................
  3af0: 00000000 00000000 00000000 00000000  ................
  3b00: 00000000 00000000 00000000 00000000  ................
  3b10: 00000000 00000000 00000000 00000000  ................
  3b20: 00000000 00000000 00000000 00000000  ................
  3b30: 00000000 00000000 00000000 00000000  ................
  3b40: 00000000 00000000 00000000 00000000  ................
  3b50: 00000000 00000000 00000000 00000000  ................
  3b60: 00000000 00000000 00000000 00000000  ................
  3b70: 00000000 00000000 00000000 00000000  ................
  3b80: 00000000 00000000 00000000 00000000  ................
  3b90: 00000000 00000000 00000000 00000000  ................
  3ba0: 00000000 00000000 00000000 00000000  ................
  3bb0: 00000000 00000000 00000000 00000000  ................
  3bc0: 00000000 00000000 00000000 00000000  ................
  3bd0: 00000000 00000000 00000000 00000000  ................
  3be0: 00000000 00000000 00000000 00000000  ................
  3bf0: 00000000 00000000 00000000 00000000  ................
  3c00: 00000000 00000000 00000000 00000000  ................
  3c10: 00000000 00000000 00000000 00000000  ................
  3c20: 00000000 00000000 00000000 00000000  ................
  3c30: 00000000 00000000 00000000 00000000  ................
  3c40: 00000000 00000000 00000000 00000000  ................
  3c50: 00000000 00000000 00000000 00000000  ................
  3c60: 00000000 00000000 00000000 00000000  ................
  3c70: 00000000 00000000 00000000 00000000  ................
  3c80: 00000000 00000000 00000000 00000000  ................
  3c90: 00000000 00000000 00000000 00000000  ................
  3ca0: 00000000 00000000 00000000 00000000  ................
  3cb0: 00000000 00000000 00000000 00000000  ................
  3cc0: 00000000 00000000 00000000 00000000  ................
  3cd0: 00000000 00000000 00000000 00000000  ................
  3ce0: 00000000 00000000 00000000 00000000  ................
  3cf0: 00000000 00000000 00000000 00000000  ................
  3d00: 00000000 00000000 00000000 00000000  ................
  3d10: 00000000 00000000 00000000 00000000  ................
  3d20: 00000000 00000000 00000000 00000000  ................
  3d30: 00000000 00000000 00000000 00000000  ................
  3d40: 00000000 00000000 00000000 00000000  ................
  3d50: 00000000 00000000 00000000 00000000  ................
  3d60: 00000000 00000000 00000000 00000000  ................
  3d70: 00000000 00000000 00000000 00000000  ................
  3d80: 00000000 00000000 00000000 00000000  ................
  3d90: 00000000 00000000 00000000 00000000  ................
  3da0: 00000000 00000000 00000000 00000000  ................
  3db0: 00000000 00000000 00000000 00000000  ................
  3dc0: 00000000 00000000 00000000 00000000  ................
  3dd0: 00000000 00000000 00000000 00000000  ................
  3de0: 00000000 00000000 00000000 00000000  ................
  3df0: 00000000 00000000 00000000 00000000  ................
  3e00: 00000000 00000000 00000000 00000000  ................
  3e10: 00000000 00000000 00000000 00000000  ................
  3e20: 00000000 00000000 00000000 00000000  ................
  3e30: 00000000 00000000 00000000 00000000  ................
  3e40: 00000000 00000000 00000000 00000000  ................
  3e50: 00000000 00000000 00000000 00000000  ................
  3e60: 00000000 00000000 00000000 00000000  ................
  3e70: 00000000 00000000 00000000 00000000  ................
  3e80: 00000000 00000000 00000000 00000000  ................
  3e90: 00000000 00000000 00000000 00000000  ................
  3ea0: 00000000 00000000 00000000 00000000  ................
  3eb0: 00000000 00000000 00000000 00000000  ................
  3ec0: 00000000 00000000 00000000 00000000  ................
  3ed0: 00000000 00000000 00000000 00000000  ................
  3ee0: 00000000 00000000 00000000 00000000  ................
  3ef0: 00000000 00000000 00000000 00000000  ................
  3f00: 00000000 00000000 00000000 00000000  ................
  3f10: 00000000 00000000 00000000 00000000  ................
  3f20: 00000000 00000000 00000000 00000000  ................
  3f30: 00000000 00000000 00000000 00000000  ................
  3f40: 00000000 00000000 00000000 00000000  ................
  3f50: 00000000 00000000 00000000 00000000  ................
  3f60: 00000000 00000000 00000000 00000000  ................
  3f70: 00000000 00000000 00000000 00000000  ................
  3f80: 00000000 00000000 00000000 00000000  ................
  3f90: 00000000 00000000 00000000 00000000  ................
  3fa0: 00000000 00000000 00000000 00000000  ................
  3fb0: 00000000 00000000 00000000 00000000  ................
  3fc0: 00000000 00000000 00000000 00000000  ................
  3fd0: 00000000 00000000 00000000 00000000  ................
  3fe0: 00000000 00000000 00000000 00000000  ................
  3ff0: 00000000 00000000 00000000 00000000  ................
  4000: 00000000 00000000 00000000 00000000  ................
  4010: 00000000 00000000 00000000 00000000  ................
  4020: 00000000 00000000 00000000 00000000  ................
  4030: 00000000 00000000 00000000 00000000  ................
  4040: 00000000 00000000 00000000 00000000  ................
  4050: 00000000 00000000 00000000 00000000  ................
  4060: 00000000 00000000 00000000 00000000  ................
  4070: 00000000 00000000 00000000 00000000  ................
  4080: 00000000 00000000 00000000 00000000  ................
  4090: 00000000 00000000 00000000 00000000  ................
  40a0: 00000000 00000000 00000000 00000000  ................
  40b0: 00000000 00000000 00000000 00000000  ................
  40c0: 00000000 00000000 00000000 00000000  ................
  40d0: 00000000 00000000 00000000 00000000  ................
  40e0: 00000000 00000000 00000000 00000000  ................
  40f0: 00000000 00000000 00000000 00000000  ................
  4100: 00000000 00000000 00000000 00000000  ................
  4110: 00000000 00000000 00000000 00000000  ................
  4120: 00000000 00000000 00000000 00000000  ................
  4130: 00000000 00000000 00000000 00000000  ................
  4140: 00000000 00000000 00000000 00000000  ................
  4150: 00000000 00000000 00000000 00000000  ................
  4160: 00000000 00000000 00000000 00000000  ................
  4170: 00000000 00000000 00000000 00000000  ................
  4180: 00000000 00000000 00000000 00000000  ................
  4190: 00000000 00000000 00000000 00000000  ................
  41a0: 00000000 00000000 00000000 00000000  ................
  41b0: 00000000 00000000 00000000 00000000  ................
  41c0: 00000000 00000000 00000000 00000000  ................
  41d0: 00000000 00000000 00000000 00000000  ................
  41e0: 00000000 00000000 00000000 00000000  ................
  41f0: 00000000 00000000 00000000 00000000  ................
  4200: 00000000 00000000 00000000 00000000  ................
  4210: 00000000 00000000 00000000 00000000  ................
  4220: 00000000 00000000 00000000 00000000  ................
  4230: 00000000 00000000 00000000 00000000  ................
  4240: 00000000 00000000 00000000 00000000  ................
  4250: 00000000 00000000 00000000 00000000  ................
  4260: 00000000 00000000 00000000 00000000  ................
  4270: 00000000 00000000 00000000 00000000  ................
  4280: 00000000 00000000 00000000 00000000  ................
  4290: 00000000 00000000 00000000 00000000  ................
  42a0: 00000000 00000000 00000000 00000000  ................
  42b0: 00000000 00000000 00000000 00000000  ................
  42c0: 00000000 00000000 00000000 00000000  ................
  42d0: 00000000 00000000 00000000 00000000  ................
  42e0: 00000000 00000000 00000000 00000000  ................
  42f0: 00000000 00000000 00000000 00000000  ................
  4300: 00000000 00000000 00000000 00000000  ................
  4310: 00000000 00000000 00000000 00000000  ................
  4320: 00000000 00000000 00000000 00000000  ................
  4330: 00000000 00000000 00000000 00000000  ................
  4340: 00000000 00000000 00000000 00000000  ................
  4350: 00000000 00000000 00000000 00000000  ................
  4360: 00000000 00000000 00000000 00000000  ................
  4370: 00000000 00000000 00000000 00000000  ................
  4380: 00000000 00000000 00000000 00000000  ................
  4390: 00000000 00000000 00000000 00000000  ................
  43a0: 00000000 00000000 00000000 00000000  ................
  43b0: 00000000 00000000 00000000 00000000  ................
  43c0: 00000000 00000000 00000000 00000000  ................
  43d0: 00000000 00000000 00000000 00000000  ................
  43e0: 00000000 00000000 00000000 00000000  ................
  43f0: 00000000 00000000 00000000 00000000  ................
  4400: 00000000 00000000 00000000 00000000  ................
  4410: 00000000 00000000 00000000 00000000  ................
  4420: 00000000 00000000 00000000 00000000  ................
  4430: 00000000 00000000 00000000 00000000  ................
  4440: 00000000 00000000 00000000 00000000  ................
  4450: 00000000 00000000 00000000 00000000  ................
  4460: 00000000 00000000 00000000 00000000  ................
  4470: 00000000 00000000 00000000 00000000  ................
  4480: 00000000 00000000 00000000 00000000  ................
  4490: 00000000 00000000 00000000 00000000  ................
  44a0: 00000000 00000000 00000000 00000000  ................
  44b0: 00000000 00000000 00000000 00000000  ................
  44c0: 00000000 00000000 00000000 00000000  ................
  44d0: 00000000 00000000 00000000 00000000  ................
  44e0: 00000000 00000000 00000000 00000000  ................
  44f0: 00000000 00000000 00000000 00000000  ................
  4500: 00000000 00000000 00000000 00000000  ................
  4510: 00000000 00000000 00000000 00000000  ................
  4520: 00000000 00000000 00000000 00000000  ................
  4530: 00000000 00000000 00000000 00000000  ................
  4540: 00000000 00000000 00000000 00000000  ................
  4550: 00000000 00000000 00000000 00000000  ................
  4560: 00000000 00000000 00000000 00000000  ................
  4570: 00000000 00000000 00000000 00000000  ................
  4580: 00000000 00000000 00000000 00000000  ................
  4590: 00000000 00000000 00000000 00000000  ................
  45a0: 00000000 00000000 00000000 00000000  ................
  45b0: 00000000 00000000 00000000 00000000  ................
  45c0: 00000000 00000000 00000000 00000000  ................
  45d0: 00000000 00000000 00000000 00000000  ................
  45e0: 00000000 00000000 00000000 00000000  ................
  45f0: 00000000 00000000 00000000 00000000  ................
  4600: 00000000 00000000 00000000 00000000  ................
  4610: 00000000 00000000 00000000 00000000  ................
  4620: 00000000 00000000 00000000 00000000  ................
  4630: 00000000 00000000 00000000 00000000  ................
  4640: 00000000 00000000 00000000 00000000  ................
  4650: 00000000 00000000 00000000 00000000  ................
  4660: 00000000 00000000 00000000 00000000  ................
  4670: 00000000 00000000 00000000 00000000  ................
  4680: 00000000 00000000 00000000 00000000  ................
  4690: 00000000 00000000 00000000 00000000  ................
  46a0: 00000000 00000000 00000000 00000000  ................
  46b0: 00000000 00000000 00000000 00000000  ................
  46c0: 00000000 00000000 00000000 00000000  ................
  46d0: 00000000 00000000 00000000 00000000  ................
  46e0: 00000000 00000000 00000000 00000000  ................
  46f0: 00000000 00000000 00000000 00000000  ................
  4700: 00000000 00000000 00000000 00000000  ................
  4710: 00000000 00000000 00000000 00000000  ................
  4720: 00000000 00000000 00000000 00000000  ................
  4730: 00000000 00000000 00000000 00000000  ................
  4740: 00000000 00000000 00000000 00000000  ................
  4750: 00000000 00000000 00000000 00000000  ................
  4760: 00000000 00000000 00000000 00000000  ................
  4770: 00000000 00000000 00000000 00000000  ................
  4780: 00000000 00000000 00000000 00000000  ................
  4790: 00000000 00000000 00000000 00000000  ................
  47a0: 00000000 00000000 00000000 00000000  ................
  47b0: 00000000 00000000 00000000 00000000  ................
  47c0: 00000000 00000000 00000000 00000000  ................
  47d0: 00000000 00000000 00000000 00000000  ................
  47e0: 00000000 00000000 00000000 00000000  ................
  47f0: 00000000 00000000 00000000 00000000  ................
  4800: 00000000 00000000 00000000 00000000  ................
  4810: 00000000 00000000 00000000 00000000  ................
  4820: 00000000 00000000 00000000 00000000  ................
  4830: 00000000 00000000 00000000 00000000  ................
  4840: 00000000 00000000 00000000 00000000  ................
  4850: 00000000 00000000 00000000 00000000  ................
  4860: 00000000 00000000 00000000 00000000  ................
  4870: 00000000 00000000 00000000 00000000  ................
  4880: 00000000 00000000 00000000 00000000  ................
  4890: 00000000 00000000 00000000 00000000  ................
  48a0: 00000000 00000000 00000000 00000000  ................
  48b0: 00000000 00000000 00000000 00000000  ................
  48c0: 00000000 00000000 00000000 00000000  ................
  48d0: 00000000 00000000 00000000 00000000  ................
  48e0: 00000000 00000000 00000000 00000000  ................
  48f0: 00000000 00000000 00000000 00000000  ................
  4900: 00000000 00000000 00000000 00000000  ................
  4910: 00000000 00000000 00000000 00000000  ................
  4920: 00000000 00000000 00000000 00000000  ................
  4930: 00000000 00000000 00000000 00000000  ................
  4940: 00000000 00000000 00000000 00000000  ................
  4950: 00000000 00000000 00000000 00000000  ................
  4960: 00000000 00000000 00000000 00000000  ................
  4970: 00000000 00000000 00000000 00000000  ................
  4980: 00000000 00000000 00000000 00000000  ................
  4990: 00000000 00000000 00000000 00000000  ................
  49a0: 00000000 00000000 00000000 00000000  ................
  49b0: 00000000 00000000 00000000 00000000  ................
  49c0: 00000000 00000000 00000000 00000000  ................
  49d0: 00000000 00000000 00000000 00000000  ................
  49e0: 00000000 00000000 00000000 00000000  ................
  49f0: 00000000 00000000 00000000 00000000  ................
  4a00: 00000000 00000000 00000000 00000000  ................
  4a10: 00000000 00000000 00000000 00000000  ................
  4a20: 00000000 00000000 00000000 00000000  ................
  4a30: 00000000 00000000 00000000 00000000  ................
  4a40: 00000000 00000000 00000000 00000000  ................
  4a50: 00000000 00000000 00000000 00000000  ................
  4a60: 00000000 00000000 00000000 00000000  ................
  4a70: 00000000 00000000 00000000 00000000  ................
  4a80: 00000000 00000000 00000000 00000000  ................
  4a90: 00000000 00000000 00000000 00000000  ................
  4aa0: 00000000 00000000 00000000 00000000  ................
  4ab0: 00000000 00000000 00000000 00000000  ................
  4ac0: 00000000 00000000 00000000 00000000  ................
  4ad0: 00000000 00000000 00000000 00000000  ................
  4ae0: 00000000 00000000 00000000 00000000  ................
  4af0: 00000000 00000000 00000000 00000000  ................
  4b00: 00000000 00000000 00000000 00000000  ................
  4b10: 00000000 00000000 00000000 00000000  ................
  4b20: 00000000 00000000 00000000 00000000  ................
  4b30: 00000000 00000000 00000000 00000000  ................
  4b40: 00000000 00000000 00000000 00000000  ................
  4b50: 00000000 00000000 00000000 00000000  ................
  4b60: 00000000 00000000 00000000 00000000  ................
  4b70: 00000000 00000000 00000000 00000000  ................
  4b80: 00000000 00000000 00000000 00000000  ................
  4b90: 00000000 00000000 00000000 00000000  ................
  4ba0: 00000000 00000000 00000000 00000000  ................
  4bb0: 00000000 00000000 00000000 00000000  ................
  4bc0: 00000000 00000000 00000000 00000000  ................
  4bd0: 00000000 00000000 00000000 00000000  ................
  4be0: 00000000 00000000 00000000 00000000  ................
  4bf0: 00000000 00000000 00000000 00000000  ................
  4c00: 00000000 00000000 00000000 00000000  ................
  4c10: 00000000 00000000 00000000 00000000  ................
  4c20: 00000000 00000000 00000000 00000000  ................
  4c30: 00000000 00000000 00000000 00000000  ................
  4c40: 00000000 00000000 00000000 00000000  ................
  4c50: 00000000 00000000 00000000 00000000  ................
  4c60: 00000000 00000000 00000000 00000000  ................
  4c70: 00000000 00000000 00000000 00000000  ................
  4c80: 00000000 00000000 00000000 00000000  ................
  4c90: 00000000 00000000 00000000 00000000  ................
  4ca0: 00000000 00000000 00000000 00000000  ................
  4cb0: 00000000 00000000 00000000 00000000  ................
  4cc0: 00000000 00000000 00000000 00000000  ................
  4cd0: 00000000 00000000 00000000 00000000  ................
  4ce0: 00000000 00000000 00000000 00000000  ................
  4cf0: 00000000 00000000 00000000 00000000  ................
  4d00: 00000000 00000000 00000000 00000000  ................
  4d10: 00000000 00000000 00000000 00000000  ................
  4d20: 00000000 00000000 00000000 00000000  ................
  4d30: 00000000 00000000 00000000 00000000  ................
  4d40: 00000000 00000000 00000000 00000000  ................
  4d50: 00000000 00000000 00000000 00000000  ................
  4d60: 00000000 00000000 00000000 00000000  ................
  4d70: 00000000 00000000 00000000 00000000  ................
  4d80: 00000000 00000000 00000000 00000000  ................
  4d90: 00000000 00000000 00000000 00000000  ................
  4da0: 00000000 00000000 00000000 00000000  ................
  4db0: 00000000 00000000 00000000 00000000  ................
  4dc0: 00000000 00000000 00000000 00000000  ................
  4dd0: 00000000 00000000 00000000 00000000  ................
  4de0: 00000000 00000000 00000000 00000000  ................
  4df0: 00000000 00000000 00000000 00000000  ................
  4e00: 00000000 00000000 00000000 00000000  ................
  4e10: 00000000 00000000 00000000 00000000  ................
  4e20: 00000000 00000000 00000000 00000000  ................
  4e30: 00000000 00000000 00000000 00000000  ................
  4e40: 00000000 00000000 00000000 00000000  ................
  4e50: 00000000 00000000 00000000 00000000  ................
  4e60: 00000000 00000000 00000000 00000000  ................
  4e70: 00000000 00000000 00000000 00000000  ................
  4e80: 00000000 00000000 00000000 00000000  ................
  4e90: 00000000 00000000 00000000 00000000  ................
  4ea0: 00000000 00000000 00000000 00000000  ................
  4eb0: 00000000 00000000 00000000 00000000  ................
  4ec0: 00000000 00000000 00000000 00000000  ................
  4ed0: 00000000 00000000 00000000 00000000  ................
  4ee0: 00000000 00000000 00000000 00000000  ................
  4ef0: 00000000 00000000 00000000 00000000  ................
  4f00: 00000000 00000000 00000000 00000000  ................
  4f10: 00000000 00000000 00000000 00000000  ................
  4f20: 00000000 00000000 00000000 00000000  ................
  4f30: 00000000 00000000 00000000 00000000  ................
  4f40: 00000000 00000000 00000000 00000000  ................
  4f50: 00000000 00000000 00000000 00000000  ................
  4f60: 00000000 00000000 00000000 00000000  ................
  4f70: 00000000 00000000 00000000 00000000  ................
  4f80: 00000000 00000000 00000000 00000000  ................
  4f90: 00000000 00000000 00000000 00000000  ................
  4fa0: 00000000 00000000 00000000 00000000  ................
  4fb0: 00000000 00000000 00000000 00000000  ................
  4fc0: 00000000 00000000 00000000 00000000  ................
  4fd0: 00000000 00000000 00000000 00000000  ................
  4fe0: 00000000 00000000 00000000 00000000  ................
  4ff0: 00000000 00000000 00000000 00000000  ................
  5000: 00000000 00000000 00000000 00000000  ................
  5010: 00000000 00000000 00000000 00000000  ................
  5020: 00000000 00000000 00000000 00000000  ................
  5030: 00000000 00000000 00000000 00000000  ................
  5040: 00000000 00000000 00000000 00000000  ................
  5050: 00000000 00000000 00000000 00000000  ................
  5060: 00000000 00000000 00000000 00000000  ................
  5070: 00000000 00000000 00000000 00000000  ................
  5080: 00000000 00000000 00000000 00000000  ................
  5090: 00000000 00000000 00000000 00000000  ................
  50a0: 00000000 00000000 00000000 00000000  ................
  50b0: 00000000 00000000 00000000 00000000  ................
  50c0: 00000000 00000000 00000000 00000000  ................
  50d0: 00000000 00000000 00000000 00000000  ................
  50e0: 00000000 00000000 00000000 00000000  ................
  50f0: 00000000 00000000 00000000 00000000  ................
  5100: 00000000 00000000 00000000 00000000  ................
  5110: 00000000 00000000 00000000 00000000  ................
  5120: 00000000 00000000 00000000 00000000  ................
  5130: 00000000 00000000 00000000 00000000  ................
  5140: 00000000 00000000 00000000 00000000  ................
  5150: 00000000 00000000 00000000 00000000  ................
  5160: 00000000 00000000 00000000 00000000  ................
  5170: 00000000 00000000 00000000 00000000  ................
  5180: 00000000 00000000 00000000 00000000  ................
  5190: 00000000 00000000 00000000 00000000  ................
  51a0: 00000000 00000000 00000000 00000000  ................
  51b0: 00000000 00000000 00000000 00000000  ................
  51c0: 00000000 00000000 00000000 00000000  ................
  51d0: 00000000 00000000 00000000 00000000  ................
  51e0: 00000000 00000000 00000000 00000000  ................
  51f0: 00000000 00000000 00000000 00000000  ................
  5200: 00000000 00000000 00000000 00000000  ................
  5210: 00000000 00000000 00000000 00000000  ................
  5220: 00000000 00000000 00000000 00000000  ................
  5230: 00000000 00000000 00000000 00000000  ................
  5240: 00000000 00000000 00000000 00000000  ................
  5250: 00000000 00000000 00000000 00000000  ................
  5260: 00000000 00000000 00000000 00000000  ................
  5270: 00000000 00000000 00000000 00000000  ................
  5280: 00000000 00000000 00000000 00000000  ................
  5290: 00000000 00000000 00000000 00000000  ................
  52a0: 00000000 00000000 00000000 00000000  ................
  52b0: 00000000 00000000 00000000 00000000  ................
  52c0: 00000000 00000000 00000000 00000000  ................
  52d0: 00000000 00000000 00000000 00000000  ................
  52e0: 00000000 00000000 00000000 00000000  ................
  52f0: 00000000 00000000 00000000 00000000  ................
  5300: 00000000 00000000 00000000 00000000  ................
  5310: 00000000 00000000 00000000 00000000  ................
  5320: 00000000 00000000 00000000 00000000  ................
  5330: 00000000 00000000 00000000 00000000  ................
  5340: 00000000 00000000 00000000 00000000  ................
  5350: 00000000 00000000 00000000 00000000  ................
  5360: 00000000 00000000 00000000 00000000  ................
  5370: 00000000 00000000 00000000 00000000  ................
  5380: 00000000 00000000 00000000 00000000  ................
  5390: 00000000 00000000 00000000 00000000  ................
  53a0: 00000000 00000000 00000000 00000000  ................
  53b0: 00000000 00000000 00000000 00000000  ................
  53c0: 00000000 00000000 00000000 00000000  ................
  53d0: 00000000 00000000 00000000 00000000  ................
  53e0: 00000000 00000000 00000000 00000000  ................
  53f0: 00000000 00000000 00000000 00000000  ................
  5400: 00000000 00000000 00000000 00000000  ................
  5410: 00000000 00000000 00000000 00000000  ................
  5420: 00000000 00000000 00000000 00000000  ................
  5430: 00000000 00000000 00000000 00000000  ................
  5440: 00000000 00000000 00000000 00000000  ................
  5450: 00000000 00000000 00000000 00000000  ................
  5460: 00000000 00000000 00000000 00000000  ................
  5470: 00000000 00000000 00000000 00000000  ................
  5480: 00000000 00000000 00000000 00000000  ................
  5490: 00000000 00000000 00000000 00000000  ................
  54a0: 00000000 00000000 00000000 00000000  ................
  54b0: 00000000 00000000 00000000 00000000  ................
  54c0: 00000000 00000000 00000000 00000000  ................
  54d0: 00000000 00000000 00000000 00000000  ................
  54e0: 00000000 00000000 00000000 00000000  ................
  54f0: 00000000 00000000 00000000 00000000  ................
  5500: 00000000 00000000 00000000 00000000  ................
