-- b-tree index
\! pg_filedump test/index.gp4

*******************************************************************
* PostgreSQL File/Block Formatted Dump Utility
*
* File: test/index.gp4
* Options used: None
*******************************************************************

Block    0 ********************************************************
<Header> -----
 Block Offset: 0x00000000         Offsets: Lower      44 (0x002c)
 Block: Size 32768  Version    4            Upper    32752 (0x7ff0)
 LSN:  logid      0 recoff 0x04ffb5c8      Special  32752 (0x7ff0)
 Items:    6                      Free Space: 32708
 Flags: 0x0000 ()
 Length (including item array): 44

 BTree Meta Data:  Magic (0x00053162)   Version (2)
                   Root:     Block (1)  Level (0)
                   FastRoot: Block (1)  Level (0)

<Special Section> -----
 BTree Index Section:
  Flags: 0x0008 (META)
  Blocks: Previous (0)  Next (0)  Level (0)  CycleId (0)


Block    1 ********************************************************
<Header> -----
 Block Offset: 0x00008000         Offsets: Lower     268 (0x010c)
 Block: Size 32768  Version    4            Upper    31760 (0x7c10)
 LSN:  logid      0 recoff 0x04ff3570      Special  32752 (0x7ff0)
 Items:   62                      Free Space: 31492
 Flags: 0x0000 ()
 Length (including item array): 268

<Data> -----
 Item   1 -- Length:   16  Offset: 32736 (0x7fe0)  Flags: USED
 Item   2 -- Length:   16  Offset: 32720 (0x7fd0)  Flags: USED
 Item   3 -- Length:   16  Offset: 32704 (0x7fc0)  Flags: USED
 Item   4 -- Length:   16  Offset: 32688 (0x7fb0)  Flags: USED
 Item   5 -- Length:   16  Offset: 32672 (0x7fa0)  Flags: USED
 Item   6 -- Length:   16  Offset: 32656 (0x7f90)  Flags: USED
 Item   7 -- Length:   16  Offset: 32640 (0x7f80)  Flags: USED
 Item   8 -- Length:   16  Offset: 32624 (0x7f70)  Flags: USED
 Item   9 -- Length:   16  Offset: 32608 (0x7f60)  Flags: USED
 Item  10 -- Length:   16  Offset: 32592 (0x7f50)  Flags: USED
 Item  11 -- Length:   16  Offset: 32576 (0x7f40)  Flags: USED
 Item  12 -- Length:   16  Offset: 32560 (0x7f30)  Flags: USED
 Item  13 -- Length:   16  Offset: 32544 (0x7f20)  Flags: USED
 Item  14 -- Length:   16  Offset: 32528 (0x7f10)  Flags: USED
 Item  15 -- Length:   16  Offset: 32512 (0x7f00)  Flags: USED
 Item  16 -- Length:   16  Offset: 32496 (0x7ef0)  Flags: USED
 Item  17 -- Length:   16  Offset: 32480 (0x7ee0)  Flags: USED
 Item  18 -- Length:   16  Offset: 32464 (0x7ed0)  Flags: USED
 Item  19 -- Length:   16  Offset: 32448 (0x7ec0)  Flags: USED
 Item  20 -- Length:   16  Offset: 32432 (0x7eb0)  Flags: USED
 Item  21 -- Length:   16  Offset: 32416 (0x7ea0)  Flags: USED
 Item  22 -- Length:   16  Offset: 32400 (0x7e90)  Flags: USED
 Item  23 -- Length:   16  Offset: 32384 (0x7e80)  Flags: USED
 Item  24 -- Length:   16  Offset: 32368 (0x7e70)  Flags: USED
 Item  25 -- Length:   16  Offset: 32352 (0x7e60)  Flags: USED
 Item  26 -- Length:   16  Offset: 32336 (0x7e50)  Flags: USED
 Item  27 -- Length:   16  Offset: 32320 (0x7e40)  Flags: USED
 Item  28 -- Length:   16  Offset: 32304 (0x7e30)  Flags: USED
 Item  29 -- Length:   16  Offset: 32288 (0x7e20)  Flags: USED
 Item  30 -- Length:   16  Offset: 32272 (0x7e10)  Flags: USED
 Item  31 -- Length:   16  Offset: 32256 (0x7e00)  Flags: USED
 Item  32 -- Length:   16  Offset: 32240 (0x7df0)  Flags: USED
 Item  33 -- Length:   16  Offset: 32224 (0x7de0)  Flags: USED
 Item  34 -- Length:   16  Offset: 32208 (0x7dd0)  Flags: USED
 Item  35 -- Length:   16  Offset: 32192 (0x7dc0)  Flags: USED
 Item  36 -- Length:   16  Offset: 32176 (0x7db0)  Flags: USED
 Item  37 -- Length:   16  Offset: 32160 (0x7da0)  Flags: USED
 Item  38 -- Length:   16  Offset: 32144 (0x7d90)  Flags: USED
 Item  39 -- Length:   16  Offset: 32128 (0x7d80)  Flags: USED
 Item  40 -- Length:   16  Offset: 32112 (0x7d70)  Flags: USED
 Item  41 -- Length:   16  Offset: 32096 (0x7d60)  Flags: USED
 Item  42 -- Length:   16  Offset: 32080 (0x7d50)  Flags: USED
 Item  43 -- Length:   16  Offset: 32064 (0x7d40)  Flags: USED
 Item  44 -- Length:   16  Offset: 32048 (0x7d30)  Flags: USED
 Item  45 -- Length:   16  Offset: 32032 (0x7d20)  Flags: USED
 Item  46 -- Length:   16  Offset: 32016 (0x7d10)  Flags: USED
 Item  47 -- Length:   16  Offset: 32000 (0x7d00)  Flags: USED
 Item  48 -- Length:   16  Offset: 31984 (0x7cf0)  Flags: USED
 Item  49 -- Length:   16  Offset: 31968 (0x7ce0)  Flags: USED
 Item  50 -- Length:   16  Offset: 31952 (0x7cd0)  Flags: USED
 Item  51 -- Length:   16  Offset: 31936 (0x7cc0)  Flags: USED
 Item  52 -- Length:   16  Offset: 31920 (0x7cb0)  Flags: USED
 Item  53 -- Length:   16  Offset: 31904 (0x7ca0)  Flags: USED
 Item  54 -- Length:   16  Offset: 31888 (0x7c90)  Flags: USED
 Item  55 -- Length:   16  Offset: 31872 (0x7c80)  Flags: USED
 Item  56 -- Length:   16  Offset: 31856 (0x7c70)  Flags: USED
 Item  57 -- Length:   16  Offset: 31840 (0x7c60)  Flags: USED
 Item  58 -- Length:   16  Offset: 31824 (0x7c50)  Flags: USED
 Item  59 -- Length:   16  Offset: 31808 (0x7c40)  Flags: USED
 Item  60 -- Length:   16  Offset: 31792 (0x7c30)  Flags: USED
 Item  61 -- Length:   16  Offset: 31776 (0x7c20)  Flags: USED
 Item  62 -- Length:   16  Offset: 31760 (0x7c10)  Flags: USED

<Special Section> -----
 BTree Index Section:
  Flags: 0x0003 (LEAF|ROOT)
  Blocks: Previous (0)  Next (0)  Level (0)  CycleId (0)


*** End of File Encountered. Last Block Read: 1 ***
-- create table <name> (c1 int, c2 text)
\! pg_filedump test/heap.gp4

*******************************************************************
* PostgreSQL File/Block Formatted Dump Utility
*
* File: test/heap.gp4
* Options used: None
*******************************************************************

Block    0 ********************************************************
<Header> -----
 Block Offset: 0x00000000         Offsets: Lower     268 (0x010c)
 Block: Size 32768  Version    4            Upper    30320 (0x7670)
 LSN:  logid      0 recoff 0x04fad2f8      Special  32768 (0x8000)
 Items:   62                      Free Space: 30052
 Flags: 0x0000 ()
 Length (including item array): 268

<Data> -----
 Item   1 -- Length:   32  Offset: 32736 (0x7fe0)  Flags: USED
 Item   2 -- Length:   32  Offset: 32704 (0x7fc0)  Flags: USED
 Item   3 -- Length:   33  Offset: 32664 (0x7f98)  Flags: USED
 Item   4 -- Length:   33  Offset: 32624 (0x7f70)  Flags: USED
 Item   5 -- Length:   33  Offset: 32584 (0x7f48)  Flags: USED
 Item   6 -- Length:   33  Offset: 32544 (0x7f20)  Flags: USED
 Item   7 -- Length:   33  Offset: 32504 (0x7ef8)  Flags: USED
 Item   8 -- Length:   33  Offset: 32464 (0x7ed0)  Flags: USED
 Item   9 -- Length:   33  Offset: 32424 (0x7ea8)  Flags: USED
 Item  10 -- Length:   33  Offset: 32384 (0x7e80)  Flags: USED
 Item  11 -- Length:   33  Offset: 32344 (0x7e58)  Flags: USED
 Item  12 -- Length:   33  Offset: 32304 (0x7e30)  Flags: USED
 Item  13 -- Length:   33  Offset: 32264 (0x7e08)  Flags: USED
 Item  14 -- Length:   33  Offset: 32224 (0x7de0)  Flags: USED
 Item  15 -- Length:   33  Offset: 32184 (0x7db8)  Flags: USED
 Item  16 -- Length:   33  Offset: 32144 (0x7d90)  Flags: USED
 Item  17 -- Length:   33  Offset: 32104 (0x7d68)  Flags: USED
 Item  18 -- Length:   33  Offset: 32064 (0x7d40)  Flags: USED
 Item  19 -- Length:   33  Offset: 32024 (0x7d18)  Flags: USED
 Item  20 -- Length:   33  Offset: 31984 (0x7cf0)  Flags: USED
 Item  21 -- Length:   33  Offset: 31944 (0x7cc8)  Flags: USED
 Item  22 -- Length:   33  Offset: 31904 (0x7ca0)  Flags: USED
 Item  23 -- Length:   33  Offset: 31864 (0x7c78)  Flags: USED
 Item  24 -- Length:   33  Offset: 31824 (0x7c50)  Flags: USED
 Item  25 -- Length:   33  Offset: 31784 (0x7c28)  Flags: USED
 Item  26 -- Length:   33  Offset: 31744 (0x7c00)  Flags: USED
 Item  27 -- Length:   33  Offset: 31704 (0x7bd8)  Flags: USED
 Item  28 -- Length:   33  Offset: 31664 (0x7bb0)  Flags: USED
 Item  29 -- Length:   33  Offset: 31624 (0x7b88)  Flags: USED
 Item  30 -- Length:   33  Offset: 31584 (0x7b60)  Flags: USED
 Item  31 -- Length:   33  Offset: 31544 (0x7b38)  Flags: USED
 Item  32 -- Length:   32  Offset: 31512 (0x7b18)  Flags: USED
 Item  33 -- Length:   32  Offset: 31480 (0x7af8)  Flags: USED
 Item  34 -- Length:   33  Offset: 31440 (0x7ad0)  Flags: USED
 Item  35 -- Length:   33  Offset: 31400 (0x7aa8)  Flags: USED
 Item  36 -- Length:   33  Offset: 31360 (0x7a80)  Flags: USED
 Item  37 -- Length:   33  Offset: 31320 (0x7a58)  Flags: USED
 Item  38 -- Length:   33  Offset: 31280 (0x7a30)  Flags: USED
 Item  39 -- Length:   33  Offset: 31240 (0x7a08)  Flags: USED
 Item  40 -- Length:   33  Offset: 31200 (0x79e0)  Flags: USED
 Item  41 -- Length:   33  Offset: 31160 (0x79b8)  Flags: USED
 Item  42 -- Length:   33  Offset: 31120 (0x7990)  Flags: USED
 Item  43 -- Length:   33  Offset: 31080 (0x7968)  Flags: USED
 Item  44 -- Length:   33  Offset: 31040 (0x7940)  Flags: USED
 Item  45 -- Length:   33  Offset: 31000 (0x7918)  Flags: USED
 Item  46 -- Length:   33  Offset: 30960 (0x78f0)  Flags: USED
 Item  47 -- Length:   33  Offset: 30920 (0x78c8)  Flags: USED
 Item  48 -- Length:   33  Offset: 30880 (0x78a0)  Flags: USED
 Item  49 -- Length:   33  Offset: 30840 (0x7878)  Flags: USED
 Item  50 -- Length:   33  Offset: 30800 (0x7850)  Flags: USED
 Item  51 -- Length:   33  Offset: 30760 (0x7828)  Flags: USED
 Item  52 -- Length:   33  Offset: 30720 (0x7800)  Flags: USED
 Item  53 -- Length:   33  Offset: 30680 (0x77d8)  Flags: USED
 Item  54 -- Length:   33  Offset: 30640 (0x77b0)  Flags: USED
 Item  55 -- Length:   33  Offset: 30600 (0x7788)  Flags: USED
 Item  56 -- Length:   33  Offset: 30560 (0x7760)  Flags: USED
 Item  57 -- Length:   33  Offset: 30520 (0x7738)  Flags: USED
 Item  58 -- Length:   33  Offset: 30480 (0x7710)  Flags: USED
 Item  59 -- Length:   33  Offset: 30440 (0x76e8)  Flags: USED
 Item  60 -- Length:   33  Offset: 30400 (0x76c0)  Flags: USED
 Item  61 -- Length:   33  Offset: 30360 (0x7698)  Flags: USED
 Item  62 -- Length:   33  Offset: 30320 (0x7670)  Flags: USED


*** End of File Encountered. Last Block Read: 0 ***
\! pg_filedump -d test/heap.gp4

*******************************************************************
* PostgreSQL File/Block Formatted Dump Utility
*
* File: test/heap.gp4
* Options used: -d
*******************************************************************

Block    0 ********************************************************
  0000: 00000000 f8d2fa04 01000000 0c017076  ..............pv
  0010: 00800480 e0ff4000 c0ff4000 98ff4200  ......@...@...B.
  0020: 70ff4200 48ff4200 20ff4200 f8fe4200  p.B.H.B. .B...B.
  0030: d0fe4200 a8fe4200 80fe4200 58fe4200  ..B...B...B.X.B.
  0040: 30fe4200 08fe4200 e0fd4200 b8fd4200  0.B...B...B...B.
  0050: 90fd4200 68fd4200 40fd4200 18fd4200  ..B.h.B.@.B...B.
  0060: f0fc4200 c8fc4200 a0fc4200 78fc4200  ..B...B...B.x.B.
  0070: 50fc4200 28fc4200 00fc4200 d8fb4200  P.B.(.B...B...B.
  0080: b0fb4200 88fb4200 60fb4200 38fb4200  ..B...B.`.B.8.B.
  0090: 18fb4000 f8fa4000 d0fa4200 a8fa4200  ..@...@...B...B.
  00a0: 80fa4200 58fa4200 30fa4200 08fa4200  ..B.X.B.0.B...B.
  00b0: e0f94200 b8f94200 90f94200 68f94200  ..B...B...B.h.B.
  00c0: 40f94200 18f94200 f0f84200 c8f84200  @.B...B...B...B.
  00d0: a0f84200 78f84200 50f84200 28f84200  ..B.x.B.P.B.(.B.
  00e0: 00f84200 d8f74200 b0f74200 88f74200  ..B...B...B...B.
  00f0: 60f74200 38f74200 10f74200 e8f64200  `.B.8.B...B...B.
  0100: c0f64200 98f64200 70f64200 00000000  ..B...B.p.B.....
  0110: 00000000 00000000 00000000 00000000  ................
  0120: 00000000 00000000 00000000 00000000  ................
  0130: 00000000 00000000 00000000 00000000  ................
  0140: 00000000 00000000 00000000 00000000  ................
  0150: 00000000 00000000 00000000 00000000  ................
  0160: 00000000 00000000 00000000 00000000  ................
  0170: 00000000 00000000 00000000 00000000  ................
  0180: 00000000 00000000 00000000 00000000  ................
  0190: 00000000 00000000 00000000 00000000  ................
  01a0: 00000000 00000000 00000000 00000000  ................
  01b0: 00000000 00000000 00000000 00000000  ................
  01c0: 00000000 00000000 00000000 00000000  ................
  01d0: 00000000 00000000 00000000 00000000  ................
  01e0: 00000000 00000000 00000000 00000000  ................
  01f0: 00000000 00000000 00000000 00000000  ................
  0200: 00000000 00000000 00000000 00000000  ................
  0210: 00000000 00000000 00000000 00000000  ................
  0220: 00000000 00000000 00000000 00000000  ................
  0230: 00000000 00000000 00000000 00000000  ................
  0240: 00000000 00000000 00000000 00000000  ................
  0250: 00000000 00000000 00000000 00000000  ................
  0260: 00000000 00000000 00000000 00000000  ................
  0270: 00000000 00000000 00000000 00000000  ................
  0280: 00000000 00000000 00000000 00000000  ................
  0290: 00000000 00000000 00000000 00000000  ................
  02a0: 00000000 00000000 00000000 00000000  ................
  02b0: 00000000 00000000 00000000 00000000  ................
  02c0: 00000000 00000000 00000000 00000000  ................
  02d0: 00000000 00000000 00000000 00000000  ................
  02e0: 00000000 00000000 00000000 00000000  ................
  02f0: 00000000 00000000 00000000 00000000  ................
  0300: 00000000 00000000 00000000 00000000  ................
  0310: 00000000 00000000 00000000 00000000  ................
  0320: 00000000 00000000 00000000 00000000  ................
  0330: 00000000 00000000 00000000 00000000  ................
  0340: 00000000 00000000 00000000 00000000  ................
  0350: 00000000 00000000 00000000 00000000  ................
  0360: 00000000 00000000 00000000 00000000  ................
  0370: 00000000 00000000 00000000 00000000  ................
  0380: 00000000 00000000 00000000 00000000  ................
  0390: 00000000 00000000 00000000 00000000  ................
  03a0: 00000000 00000000 00000000 00000000  ................
  03b0: 00000000 00000000 00000000 00000000  ................
  03c0: 00000000 00000000 00000000 00000000  ................
  03d0: 00000000 00000000 00000000 00000000  ................
  03e0: 00000000 00000000 00000000 00000000  ................
  03f0: 00000000 00000000 00000000 00000000  ................
  0400: 00000000 00000000 00000000 00000000  ................
  0410: 00000000 00000000 00000000 00000000  ................
  0420: 00000000 00000000 00000000 00000000  ................
  0430: 00000000 00000000 00000000 00000000  ................
  0440: 00000000 00000000 00000000 00000000  ................
  0450: 00000000 00000000 00000000 00000000  ................
  0460: 00000000 00000000 00000000 00000000  ................
  0470: 00000000 00000000 00000000 00000000  ................
  0480: 00000000 00000000 00000000 00000000  ................
  0490: 00000000 00000000 00000000 00000000  ................
  04a0: 00000000 00000000 00000000 00000000  ................
  04b0: 00000000 00000000 00000000 00000000  ................
  04c0: 00000000 00000000 00000000 00000000  ................
  04d0: 00000000 00000000 00000000 00000000  ................
  04e0: 00000000 00000000 00000000 00000000  ................
  04f0: 00000000 00000000 00000000 00000000  ................
  0500: 00000000 00000000 00000000 00000000  ................
  0510: 00000000 00000000 00000000 00000000  ................
  0520: 00000000 00000000 00000000 00000000  ................
  0530: 00000000 00000000 00000000 00000000  ................
  0540: 00000000 00000000 00000000 00000000  ................
  0550: 00000000 00000000 00000000 00000000  ................
  0560: 00000000 00000000 00000000 00000000  ................
  0570: 00000000 00000000 00000000 00000000  ................
  0580: 00000000 00000000 00000000 00000000  ................
  0590: 00000000 00000000 00000000 00000000  ................
  05a0: 00000000 00000000 00000000 00000000  ................
  05b0: 00000000 00000000 00000000 00000000  ................
  05c0: 00000000 00000000 00000000 00000000  ................
  05d0: 00000000 00000000 00000000 00000000  ................
  05e0: 00000000 00000000 00000000 00000000  ................
  05f0: 00000000 00000000 00000000 00000000  ................
  0600: 00000000 00000000 00000000 00000000  ................
  0610: 00000000 00000000 00000000 00000000  ................
  0620: 00000000 00000000 00000000 00000000  ................
  0630: 00000000 00000000 00000000 00000000  ................
  0640: 00000000 00000000 00000000 00000000  ................
  0650: 00000000 00000000 00000000 00000000  ................
  0660: 00000000 00000000 00000000 00000000  ................
  0670: 00000000 00000000 00000000 00000000  ................
  0680: 00000000 00000000 00000000 00000000  ................
  0690: 00000000 00000000 00000000 00000000  ................
  06a0: 00000000 00000000 00000000 00000000  ................
  06b0: 00000000 00000000 00000000 00000000  ................
  06c0: 00000000 00000000 00000000 00000000  ................
  06d0: 00000000 00000000 00000000 00000000  ................
  06e0: 00000000 00000000 00000000 00000000  ................
  06f0: 00000000 00000000 00000000 00000000  ................
  0700: 00000000 00000000 00000000 00000000  ................
  0710: 00000000 00000000 00000000 00000000  ................
  0720: 00000000 00000000 00000000 00000000  ................
  0730: 00000000 00000000 00000000 00000000  ................
  0740: 00000000 00000000 00000000 00000000  ................
  0750: 00000000 00000000 00000000 00000000  ................
  0760: 00000000 00000000 00000000 00000000  ................
  0770: 00000000 00000000 00000000 00000000  ................
  0780: 00000000 00000000 00000000 00000000  ................
  0790: 00000000 00000000 00000000 00000000  ................
  07a0: 00000000 00000000 00000000 00000000  ................
  07b0: 00000000 00000000 00000000 00000000  ................
  07c0: 00000000 00000000 00000000 00000000  ................
  07d0: 00000000 00000000 00000000 00000000  ................
  07e0: 00000000 00000000 00000000 00000000  ................
  07f0: 00000000 00000000 00000000 00000000  ................
  0800: 00000000 00000000 00000000 00000000  ................
  0810: 00000000 00000000 00000000 00000000  ................
  0820: 00000000 00000000 00000000 00000000  ................
  0830: 00000000 00000000 00000000 00000000  ................
  0840: 00000000 00000000 00000000 00000000  ................
  0850: 00000000 00000000 00000000 00000000  ................
  0860: 00000000 00000000 00000000 00000000  ................
  0870: 00000000 00000000 00000000 00000000  ................
  0880: 00000000 00000000 00000000 00000000  ................
  0890: 00000000 00000000 00000000 00000000  ................
  08a0: 00000000 00000000 00000000 00000000  ................
  08b0: 00000000 00000000 00000000 00000000  ................
  08c0: 00000000 00000000 00000000 00000000  ................
  08d0: 00000000 00000000 00000000 00000000  ................
  08e0: 00000000 00000000 00000000 00000000  ................
  08f0: 00000000 00000000 00000000 00000000  ................
  0900: 00000000 00000000 00000000 00000000  ................
  0910: 00000000 00000000 00000000 00000000  ................
  0920: 00000000 00000000 00000000 00000000  ................
  0930: 00000000 00000000 00000000 00000000  ................
  0940: 00000000 00000000 00000000 00000000  ................
  0950: 00000000 00000000 00000000 00000000  ................
  0960: 00000000 00000000 00000000 00000000  ................
  0970: 00000000 00000000 00000000 00000000  ................
  0980: 00000000 00000000 00000000 00000000  ................
  0990: 00000000 00000000 00000000 00000000  ................
  09a0: 00000000 00000000 00000000 00000000  ................
  09b0: 00000000 00000000 00000000 00000000  ................
  09c0: 00000000 00000000 00000000 00000000  ................
  09d0: 00000000 00000000 00000000 00000000  ................
  09e0: 00000000 00000000 00000000 00000000  ................
  09f0: 00000000 00000000 00000000 00000000  ................
  0a00: 00000000 00000000 00000000 00000000  ................
  0a10: 00000000 00000000 00000000 00000000  ................
  0a20: 00000000 00000000 00000000 00000000  ................
  0a30: 00000000 00000000 00000000 00000000  ................
  0a40: 00000000 00000000 00000000 00000000  ................
  0a50: 00000000 00000000 00000000 00000000  ................
  0a60: 00000000 00000000 00000000 00000000  ................
  0a70: 00000000 00000000 00000000 00000000  ................
  0a80: 00000000 00000000 00000000 00000000  ................
  0a90: 00000000 00000000 00000000 00000000  ................
  0aa0: 00000000 00000000 00000000 00000000  ................
  0ab0: 00000000 00000000 00000000 00000000  ................
  0ac0: 00000000 00000000 00000000 00000000  ................
  0ad0: 00000000 00000000 00000000 00000000  ................
  0ae0: 00000000 00000000 00000000 00000000  ................
  0af0: 00000000 00000000 00000000 00000000  ................
  0b00: 00000000 00000000 00000000 00000000  ................
  0b10: 00000000 00000000 00000000 00000000  ................
  0b20: 00000000 00000000 00000000 00000000  ................
  0b30: 00000000 00000000 00000000 00000000  ................
  0b40: 00000000 00000000 00000000 00000000  ................
  0b50: 00000000 00000000 00000000 00000000  ................
  0b60: 00000000 00000000 00000000 00000000  ................
  0b70: 00000000 00000000 00000000 00000000  ................
  0b80: 00000000 00000000 00000000 00000000  ................
  0b90: 00000000 00000000 00000000 00000000  ................
  0ba0: 00000000 00000000 00000000 00000000  ................
  0bb0: 00000000 00000000 00000000 00000000  ................
  0bc0: 00000000 00000000 00000000 00000000  ................
  0bd0: 00000000 00000000 00000000 00000000  ................
  0be0: 00000000 00000000 00000000 00000000  ................
  0bf0: 00000000 00000000 00000000 00000000  ................
  0c00: 00000000 00000000 00000000 00000000  ................
  0c10: 00000000 00000000 00000000 00000000  ................
  0c20: 00000000 00000000 00000000 00000000  ................
  0c30: 00000000 00000000 00000000 00000000  ................
  0c40: 00000000 00000000 00000000 00000000  ................
  0c50: 00000000 00000000 00000000 00000000  ................
  0c60: 00000000 00000000 00000000 00000000  ................
  0c70: 00000000 00000000 00000000 00000000  ................
  0c80: 00000000 00000000 00000000 00000000  ................
  0c90: 00000000 00000000 00000000 00000000  ................
  0ca0: 00000000 00000000 00000000 00000000  ................
  0cb0: 00000000 00000000 00000000 00000000  ................
  0cc0: 00000000 00000000 00000000 00000000  ................
  0cd0: 00000000 00000000 00000000 00000000  ................
  0ce0: 00000000 00000000 00000000 00000000  ................
  0cf0: 00000000 00000000 00000000 00000000  ................
  0d00: 00000000 00000000 00000000 00000000  ................
  0d10: 00000000 00000000 00000000 00000000  ................
  0d20: 00000000 00000000 00000000 00000000  ................
  0d30: 00000000 00000000 00000000 00000000  ................
  0d40: 00000000 00000000 00000000 00000000  ................
  0d50: 00000000 00000000 00000000 00000000  ................
  0d60: 00000000 00000000 00000000 00000000  ................
  0d70: 00000000 00000000 00000000 00000000  ................
  0d80: 00000000 00000000 00000000 00000000  ................
  0d90: 00000000 00000000 00000000 00000000  ................
  0da0: 00000000 00000000 00000000 00000000  ................
  0db0: 00000000 00000000 00000000 00000000  ................
  0dc0: 00000000 00000000 00000000 00000000  ................
  0dd0: 00000000 00000000 00000000 00000000  ................
  0de0: 00000000 00000000 00000000 00000000  ................
  0df0: 00000000 00000000 00000000 00000000  ................
  0e00: 00000000 00000000 00000000 00000000  ................
  0e10: 00000000 00000000 00000000 00000000  ................
  0e20: 00000000 00000000 00000000 00000000  ................
  0e30: 00000000 00000000 00000000 00000000  ................
  0e40: 00000000 00000000 00000000 00000000  ................
  0e50: 00000000 00000000 00000000 00000000  ................
  0e60: 00000000 00000000 00000000 00000000  ................
  0e70: 00000000 00000000 00000000 00000000  ................
  0e80: 00000000 00000000 00000000 00000000  ................
  0e90: 00000000 00000000 00000000 00000000  ................
  0ea0: 00000000 00000000 00000000 00000000  ................
  0eb0: 00000000 00000000 00000000 00000000  ................
  0ec0: 00000000 00000000 00000000 00000000  ................
  0ed0: 00000000 00000000 00000000 00000000  ................
  0ee0: 00000000 00000000 00000000 00000000  ................
  0ef0: 00000000 00000000 00000000 00000000  ................
  0f00: 00000000 00000000 00000000 00000000  ................
  0f10: 00000000 00000000 00000000 00000000  ................
  0f20: 00000000 00000000 00000000 00000000  ................
  0f30: 00000000 00000000 00000000 00000000  ................
  0f40: 00000000 00000000 00000000 00000000  ................
  0f50: 00000000 00000000 00000000 00000000  ................
  0f60: 00000000 00000000 00000000 00000000  ................
  0f70: 00000000 00000000 00000000 00000000  ................
  0f80: 00000000 00000000 00000000 00000000  ................
  0f90: 00000000 00000000 00000000 00000000  ................
  0fa0: 00000000 00000000 00000000 00000000  ................
  0fb0: 00000000 00000000 00000000 00000000  ................
  0fc0: 00000000 00000000 00000000 00000000  ................
  0fd0: 00000000 00000000 00000000 00000000  ................
  0fe0: 00000000 00000000 00000000 00000000  ................
  0ff0: 00000000 00000000 00000000 00000000  ................
  1000: 00000000 00000000 00000000 00000000  ................
  1010: 00000000 00000000 00000000 00000000  ................
  1020: 00000000 00000000 00000000 00000000  ................
  1030: 00000000 00000000 00000000 00000000  ................
  1040: 00000000 00000000 00000000 00000000  ................
  1050: 00000000 00000000 00000000 00000000  ................
  1060: 00000000 00000000 00000000 00000000  ................
  1070: 00000000 00000000 00000000 00000000  ................
  1080: 00000000 00000000 00000000 00000000  ................
  1090: 00000000 00000000 00000000 00000000  ................
  10a0: 00000000 00000000 00000000 00000000  ................
  10b0: 00000000 00000000 00000000 00000000  ................
  10c0: 00000000 00000000 00000000 00000000  ................
  10d0: 00000000 00000000 00000000 00000000  ................
  10e0: 00000000 00000000 00000000 00000000  ................
  10f0: 00000000 00000000 00000000 00000000  ................
  1100: 00000000 00000000 00000000 00000000  ................
  1110: 00000000 00000000 00000000 00000000  ................
  1120: 00000000 00000000 00000000 00000000  ................
  1130: 00000000 00000000 00000000 00000000  ................
  1140: 00000000 00000000 00000000 00000000  ................
  1150: 00000000 00000000 00000000 00000000  ................
  1160: 00000000 00000000 00000000 00000000  ................
  1170: 00000000 00000000 00000000 00000000  ................
  1180: 00000000 00000000 00000000 00000000  ................
  1190: 00000000 00000000 00000000 00000000  ................
  11a0: 00000000 00000000 00000000 00000000  ................
  11b0: 00000000 00000000 00000000 00000000  ................
  11c0: 00000000 00000000 00000000 00000000  ................
  11d0: 00000000 00000000 00000000 00000000  ................
  11e0: 00000000 00000000 00000000 00000000  ................
  11f0: 00000000 00000000 00000000 00000000  ................
  1200: 00000000 00000000 00000000 00000000  ................
  1210: 00000000 00000000 00000000 00000000  ................
  1220: 00000000 00000000 00000000 00000000  ................
  1230: 00000000 00000000 00000000 00000000  ................
  1240: 00000000 00000000 00000000 00000000  ................
  1250: 00000000 00000000 00000000 00000000  ................
  1260: 00000000 00000000 00000000 00000000  ................
  1270: 00000000 00000000 00000000 00000000  ................
  1280: 00000000 00000000 00000000 00000000  ................
  1290: 00000000 00000000 00000000 00000000  ................
  12a0: 00000000 00000000 00000000 00000000  ................
  12b0: 00000000 00000000 00000000 00000000  ................
  12c0: 00000000 00000000 00000000 00000000  ................
  12d0: 00000000 00000000 00000000 00000000  ................
  12e0: 00000000 00000000 00000000 00000000  ................
  12f0: 00000000 00000000 00000000 00000000  ................
  1300: 00000000 00000000 00000000 00000000  ................
  1310: 00000000 00000000 00000000 00000000  ................
  1320: 00000000 00000000 00000000 00000000  ................
  1330: 00000000 00000000 00000000 00000000  ................
  1340: 00000000 00000000 00000000 00000000  ................
  1350: 00000000 00000000 00000000 00000000  ................
  1360: 00000000 00000000 00000000 00000000  ................
  1370: 00000000 00000000 00000000 00000000  ................
  1380: 00000000 00000000 00000000 00000000  ................
  1390: 00000000 00000000 00000000 00000000  ................
  13a0: 00000000 00000000 00000000 00000000  ................
  13b0: 00000000 00000000 00000000 00000000  ................
  13c0: 00000000 00000000 00000000 00000000  ................
  13d0: 00000000 00000000 00000000 00000000  ................
  13e0: 00000000 00000000 00000000 00000000  ................
  13f0: 00000000 00000000 00000000 00000000  ................
  1400: 00000000 00000000 00000000 00000000  ................
  1410: 00000000 00000000 00000000 00000000  ................
  1420: 00000000 00000000 00000000 00000000  ................
  1430: 00000000 00000000 00000000 00000000  ................
  1440: 00000000 00000000 00000000 00000000  ................
  1450: 00000000 00000000 00000000 00000000  ................
  1460: 00000000 00000000 00000000 00000000  ................
  1470: 00000000 00000000 00000000 00000000  ................
  1480: 00000000 00000000 00000000 00000000  ................
  1490: 00000000 00000000 00000000 00000000  ................
  14a0: 00000000 00000000 00000000 00000000  ................
  14b0: 00000000 00000000 00000000 00000000  ................
  14c0: 00000000 00000000 00000000 00000000  ................
  14d0: 00000000 00000000 00000000 00000000  ................
  14e0: 00000000 00000000 00000000 00000000  ................
  14f0: 00000000 00000000 00000000 00000000  ................
  1500: 00000000 00000000 00000000 00000000  ................
  1510: 00000000 00000000 00000000 00000000  ................
  1520: 00000000 00000000 00000000 00000000  ................
  1530: 00000000 00000000 00000000 00000000  ................
  1540: 00000000 00000000 00000000 00000000  ................
  1550: 00000000 00000000 00000000 00000000  ................
  1560: 00000000 00000000 00000000 00000000  ................
  1570: 00000000 00000000 00000000 00000000  ................
  1580: 00000000 00000000 00000000 00000000  ................
  1590: 00000000 00000000 00000000 00000000  ................
  15a0: 00000000 00000000 00000000 00000000  ................
  15b0: 00000000 00000000 00000000 00000000  ................
  15c0: 00000000 00000000 00000000 00000000  ................
  15d0: 00000000 00000000 00000000 00000000  ................
  15e0: 00000000 00000000 00000000 00000000  ................
  15f0: 00000000 00000000 00000000 00000000  ................
  1600: 00000000 00000000 00000000 00000000  ................
  1610: 00000000 00000000 00000000 00000000  ................
  1620: 00000000 00000000 00000000 00000000  ................
  1630: 00000000 00000000 00000000 00000000  ................
  1640: 00000000 00000000 00000000 00000000  ................
  1650: 00000000 00000000 00000000 00000000  ................
  1660: 00000000 00000000 00000000 00000000  ................
  1670: 00000000 00000000 00000000 00000000  ................
  1680: 00000000 00000000 00000000 00000000  ................
  1690: 00000000 00000000 00000000 00000000  ................
  16a0: 00000000 00000000 00000000 00000000  ................
  16b0: 00000000 00000000 00000000 00000000  ................
  16c0: 00000000 00000000 00000000 00000000  ................
  16d0: 00000000 00000000 00000000 00000000  ................
  16e0: 00000000 00000000 00000000 00000000  ................
  16f0: 00000000 00000000 00000000 00000000  ................
  1700: 00000000 00000000 00000000 00000000  ................
  1710: 00000000 00000000 00000000 00000000  ................
  1720: 00000000 00000000 00000000 00000000  ................
  1730: 00000000 00000000 00000000 00000000  ................
  1740: 00000000 00000000 00000000 00000000  ................
  1750: 00000000 00000000 00000000 00000000  ................
  1760: 00000000 00000000 00000000 00000000  ................
  1770: 00000000 00000000 00000000 00000000  ................
  1780: 00000000 00000000 00000000 00000000  ................
  1790: 00000000 00000000 00000000 00000000  ................
  17a0: 00000000 00000000 00000000 00000000  ................
  17b0: 00000000 00000000 00000000 00000000  ................
  17c0: 00000000 00000000 00000000 00000000  ................
  17d0: 00000000 00000000 00000000 00000000  ................
  17e0: 00000000 00000000 00000000 00000000  ................
  17f0: 00000000 00000000 00000000 00000000  ................
  1800: 00000000 00000000 00000000 00000000  ................
  1810: 00000000 00000000 00000000 00000000  ................
  1820: 00000000 00000000 00000000 00000000  ................
  1830: 00000000 00000000 00000000 00000000  ................
  1840: 00000000 00000000 00000000 00000000  ................
  1850: 00000000 00000000 00000000 00000000  ................
  1860: 00000000 00000000 00000000 00000000  ................
  1870: 00000000 00000000 00000000 00000000  ................
  1880: 00000000 00000000 00000000 00000000  ................
  1890: 00000000 00000000 00000000 00000000  ................
  18a0: 00000000 00000000 00000000 00000000  ................
  18b0: 00000000 00000000 00000000 00000000  ................
  18c0: 00000000 00000000 00000000 00000000  ................
  18d0: 00000000 00000000 00000000 00000000  ................
  18e0: 00000000 00000000 00000000 00000000  ................
  18f0: 00000000 00000000 00000000 00000000  ................
  1900: 00000000 00000000 00000000 00000000  ................
  1910: 00000000 00000000 00000000 00000000  ................
  1920: 00000000 00000000 00000000 00000000  ................
  1930: 00000000 00000000 00000000 00000000  ................
  1940: 00000000 00000000 00000000 00000000  ................
  1950: 00000000 00000000 00000000 00000000  ................
  1960: 00000000 00000000 00000000 00000000  ................
  1970: 00000000 00000000 00000000 00000000  ................
  1980: 00000000 00000000 00000000 00000000  ................
  1990: 00000000 00000000 00000000 00000000  ................
  19a0: 00000000 00000000 00000000 00000000  ................
  19b0: 00000000 00000000 00000000 00000000  ................
  19c0: 00000000 00000000 00000000 00000000  ................
  19d0: 00000000 00000000 00000000 00000000  ................
  19e0: 00000000 00000000 00000000 00000000  ................
  19f0: 00000000 00000000 00000000 00000000  ................
  1a00: 00000000 00000000 00000000 00000000  ................
  1a10: 00000000 00000000 00000000 00000000  ................
  1a20: 00000000 00000000 00000000 00000000  ................
  1a30: 00000000 00000000 00000000 00000000  ................
  1a40: 00000000 00000000 00000000 00000000  ................
  1a50: 00000000 00000000 00000000 00000000  ................
  1a60: 00000000 00000000 00000000 00000000  ................
  1a70: 00000000 00000000 00000000 00000000  ................
  1a80: 00000000 00000000 00000000 00000000  ................
  1a90: 00000000 00000000 00000000 00000000  ................
  1aa0: 00000000 00000000 00000000 00000000  ................
  1ab0: 00000000 00000000 00000000 00000000  ................
  1ac0: 00000000 00000000 00000000 00000000  ................
  1ad0: 00000000 00000000 00000000 00000000  ................
  1ae0: 00000000 00000000 00000000 00000000  ................
  1af0: 00000000 00000000 00000000 00000000  ................
  1b00: 00000000 00000000 00000000 00000000  ................
  1b10: 00000000 00000000 00000000 00000000  ................
  1b20: 00000000 00000000 00000000 00000000  ................
  1b30: 00000000 00000000 00000000 00000000  ................
  1b40: 00000000 00000000 00000000 00000000  ................
  1b50: 00000000 00000000 00000000 00000000  ................
  1b60: 00000000 00000000 00000000 00000000  ................
  1b70: 00000000 00000000 00000000 00000000  ................
  1b80: 00000000 00000000 00000000 00000000  ................
  1b90: 00000000 00000000 00000000 00000000  ................
  1ba0: 00000000 00000000 00000000 00000000  ................
  1bb0: 00000000 00000000 00000000 00000000  ................
  1bc0: 00000000 00000000 00000000 00000000  ................
  1bd0: 00000000 00000000 00000000 00000000  ................
  1be0: 00000000 00000000 00000000 00000000  ................
  1bf0: 00000000 00000000 00000000 00000000  ................
  1c00: 00000000 00000000 00000000 00000000  ................
  1c10: 00000000 00000000 00000000 00000000  ................
  1c20: 00000000 00000000 00000000 00000000  ................
  1c30: 00000000 00000000 00000000 00000000  ................
  1c40: 00000000 00000000 00000000 00000000  ................
  1c50: 00000000 00000000 00000000 00000000  ................
  1c60: 00000000 00000000 00000000 00000000  ................
  1c70: 00000000 00000000 00000000 00000000  ................
  1c80: 00000000 00000000 00000000 00000000  ................
  1c90: 00000000 00000000 00000000 00000000  ................
  1ca0: 00000000 00000000 00000000 00000000  ................
  1cb0: 00000000 00000000 00000000 00000000  ................
  1cc0: 00000000 00000000 00000000 00000000  ................
  1cd0: 00000000 00000000 00000000 00000000  ................
  1ce0: 00000000 00000000 00000000 00000000  ................
  1cf0: 00000000 00000000 00000000 00000000  ................
  1d00: 00000000 00000000 00000000 00000000  ................
  1d10: 00000000 00000000 00000000 00000000  ................
  1d20: 00000000 00000000 00000000 00000000  ................
  1d30: 00000000 00000000 00000000 00000000  ................
  1d40: 00000000 00000000 00000000 00000000  ................
  1d50: 00000000 00000000 00000000 00000000  ................
  1d60: 00000000 00000000 00000000 00000000  ................
  1d70: 00000000 00000000 00000000 00000000  ................
  1d80: 00000000 00000000 00000000 00000000  ................
  1d90: 00000000 00000000 00000000 00000000  ................
  1da0: 00000000 00000000 00000000 00000000  ................
  1db0: 00000000 00000000 00000000 00000000  ................
  1dc0: 00000000 00000000 00000000 00000000  ................
  1dd0: 00000000 00000000 00000000 00000000  ................
  1de0: 00000000 00000000 00000000 00000000  ................
  1df0: 00000000 00000000 00000000 00000000  ................
  1e00: 00000000 00000000 00000000 00000000  ................
  1e10: 00000000 00000000 00000000 00000000  ................
  1e20: 00000000 00000000 00000000 00000000  ................
  1e30: 00000000 00000000 00000000 00000000  ................
  1e40: 00000000 00000000 00000000 00000000  ................
  1e50: 00000000 00000000 00000000 00000000  ................
  1e60: 00000000 00000000 00000000 00000000  ................
  1e70: 00000000 00000000 00000000 00000000  ................
  1e80: 00000000 00000000 00000000 00000000  ................
  1e90: 00000000 00000000 00000000 00000000  ................
  1ea0: 00000000 00000000 00000000 00000000  ................
  1eb0: 00000000 00000000 00000000 00000000  ................
  1ec0: 00000000 00000000 00000000 00000000  ................
  1ed0: 00000000 00000000 00000000 00000000  ................
  1ee0: 00000000 00000000 00000000 00000000  ................
  1ef0: 00000000 00000000 00000000 00000000  ................
  1f00: 00000000 00000000 00000000 00000000  ................
  1f10: 00000000 00000000 00000000 00000000  ................
  1f20: 00000000 00000000 00000000 00000000  ................
  1f30: 00000000 00000000 00000000 00000000  ................
  1f40: 00000000 00000000 00000000 00000000  ................
  1f50: 00000000 00000000 00000000 00000000  ................
  1f60: 00000000 00000000 00000000 00000000  ................
  1f70: 00000000 00000000 00000000 00000000  ................
  1f80: 00000000 00000000 00000000 00000000  ................
  1f90: 00000000 00000000 00000000 00000000  ................
  1fa0: 00000000 00000000 00000000 00000000  ................
  1fb0: 00000000 00000000 00000000 00000000  ................
  1fc0: 00000000 00000000 00000000 00000000  ................
  1fd0: 00000000 00000000 00000000 00000000  ................
  1fe0: 00000000 00000000 00000000 00000000  ................
  1ff0: 00000000 00000000 00000000 00000000  ................
  2000: 00000000 00000000 00000000 00000000  ................
  2010: 00000000 00000000 00000000 00000000  ................
  2020: 00000000 00000000 00000000 00000000  ................
  2030: 00000000 00000000 00000000 00000000  ................
  2040: 00000000 00000000 00000000 00000000  ................
  2050: 00000000 00000000 00000000 00000000  ................
  2060: 00000000 00000000 00000000 00000000  ................
  2070: 00000000 00000000 00000000 00000000  ................
  2080: 00000000 00000000 00000000 00000000  ................
  2090: 00000000 00000000 00000000 00000000  ................
  20a0: 00000000 00000000 00000000 00000000  ................
  20b0: 00000000 00000000 00000000 00000000  ................
  20c0: 00000000 00000000 00000000 00000000  ................
  20d0: 00000000 00000000 00000000 00000000  ................
  20e0: 00000000 00000000 00000000 00000000  ................
  20f0: 00000000 00000000 00000000 00000000  ................
  2100: 00000000 00000000 00000000 00000000  ................
  2110: 00000000 00000000 00000000 00000000  ................
  2120: 00000000 00000000 00000000 00000000  ................
  2130: 00000000 00000000 00000000 00000000  ................
  2140: 00000000 00000000 00000000 00000000  ................
  2150: 00000000 00000000 00000000 00000000  ................
  2160: 00000000 00000000 00000000 00000000  ................
  2170: 00000000 00000000 00000000 00000000  ................
  2180: 00000000 00000000 00000000 00000000  ................
  2190: 00000000 00000000 00000000 00000000  ................
  21a0: 00000000 00000000 00000000 00000000  ................
  21b0: 00000000 00000000 00000000 00000000  ................
  21c0: 00000000 00000000 00000000 00000000  ................
  21d0: 00000000 00000000 00000000 00000000  ................
  21e0: 00000000 00000000 00000000 00000000  ................
  21f0: 00000000 00000000 00000000 00000000  ................
  2200: 00000000 00000000 00000000 00000000  ................
  2210: 00000000 00000000 00000000 00000000  ................
  2220: 00000000 00000000 00000000 00000000  ................
  2230: 00000000 00000000 00000000 00000000  ................
  2240: 00000000 00000000 00000000 00000000  ................
  2250: 00000000 00000000 00000000 00000000  ................
  2260: 00000000 00000000 00000000 00000000  ................
  2270: 00000000 00000000 00000000 00000000  ................
  2280: 00000000 00000000 00000000 00000000  ................
  2290: 00000000 00000000 00000000 00000000  ................
  22a0: 00000000 00000000 00000000 00000000  ................
  22b0: 00000000 00000000 00000000 00000000  ................
  22c0: 00000000 00000000 00000000 00000000  ................
  22d0: 00000000 00000000 00000000 00000000  ................
  22e0: 00000000 00000000 00000000 00000000  ................
  22f0: 00000000 00000000 00000000 00000000  ................
  2300: 00000000 00000000 00000000 00000000  ................
  2310: 00000000 00000000 00000000 00000000  ................
  2320: 00000000 00000000 00000000 00000000  ................
  2330: 00000000 00000000 00000000 00000000  ................
  2340: 00000000 00000000 00000000 00000000  ................
  2350: 00000000 00000000 00000000 00000000  ................
  2360: 00000000 00000000 00000000 00000000  ................
  2370: 00000000 00000000 00000000 00000000  ................
  2380: 00000000 00000000 00000000 00000000  ................
  2390: 00000000 00000000 00000000 00000000  ................
  23a0: 00000000 00000000 00000000 00000000  ................
  23b0: 00000000 00000000 00000000 00000000  ................
  23c0: 00000000 00000000 00000000 00000000  ................
  23d0: 00000000 00000000 00000000 00000000  ................
  23e0: 00000000 00000000 00000000 00000000  ................
  23f0: 00000000 00000000 00000000 00000000  ................
  2400: 00000000 00000000 00000000 00000000  ................
  2410: 00000000 00000000 00000000 00000000  ................
  2420: 00000000 00000000 00000000 00000000  ................
  2430: 00000000 00000000 00000000 00000000  ................
  2440: 00000000 00000000 00000000 00000000  ................
  2450: 00000000 00000000 00000000 00000000  ................
  2460: 00000000 00000000 00000000 00000000  ................
  2470: 00000000 00000000 00000000 00000000  ................
  2480: 00000000 00000000 00000000 00000000  ................
  2490: 00000000 00000000 00000000 00000000  ................
  24a0: 00000000 00000000 00000000 00000000  ................
  24b0: 00000000 00000000 00000000 00000000  ................
  24c0: 00000000 00000000 00000000 00000000  ................
  24d0: 00000000 00000000 00000000 00000000  ................
  24e0: 00000000 00000000 00000000 00000000  ................
  24f0: 00000000 00000000 00000000 00000000  ................
  2500: 00000000 00000000 00000000 00000000  ................
  2510: 00000000 00000000 00000000 00000000  ................
  2520: 00000000 00000000 00000000 00000000  ................
  2530: 00000000 00000000 00000000 00000000  ................
  2540: 00000000 00000000 00000000 00000000  ................
  2550: 00000000 00000000 00000000 00000000  ................
  2560: 00000000 00000000 00000000 00000000  ................
  2570: 00000000 00000000 00000000 00000000  ................
  2580: 00000000 00000000 00000000 00000000  ................
  2590: 00000000 00000000 00000000 00000000  ................
  25a0: 00000000 00000000 00000000 00000000  ................
  25b0: 00000000 00000000 00000000 00000000  ................
  25c0: 00000000 00000000 00000000 00000000  ................
  25d0: 00000000 00000000 00000000 00000000  ................
  25e0: 00000000 00000000 00000000 00000000  ................
  25f0: 00000000 00000000 00000000 00000000  ................
  2600: 00000000 00000000 00000000 00000000  ................
  2610: 00000000 00000000 00000000 00000000  ................
  2620: 00000000 00000000 00000000 00000000  ................
  2630: 00000000 00000000 00000000 00000000  ................
  2640: 00000000 00000000 00000000 00000000  ................
  2650: 00000000 00000000 00000000 00000000  ................
  2660: 00000000 00000000 00000000 00000000  ................
  2670: 00000000 00000000 00000000 00000000  ................
  2680: 00000000 00000000 00000000 00000000  ................
  2690: 00000000 00000000 00000000 00000000  ................
  26a0: 00000000 00000000 00000000 00000000  ................
  26b0: 00000000 00000000 00000000 00000000  ................
  26c0: 00000000 00000000 00000000 00000000  ................
  26d0: 00000000 00000000 00000000 00000000  ................
  26e0: 00000000 00000000 00000000 00000000  ................
  26f0: 00000000 00000000 00000000 00000000  ................
  2700: 00000000 00000000 00000000 00000000  ................
  2710: 00000000 00000000 00000000 00000000  ................
  2720: 00000000 00000000 00000000 00000000  ................
  2730: 00000000 00000000 00000000 00000000  ................
  2740: 00000000 00000000 00000000 00000000  ................
  2750: 00000000 00000000 00000000 00000000  ................
  2760: 00000000 00000000 00000000 00000000  ................
  2770: 00000000 00000000 00000000 00000000  ................
  2780: 00000000 00000000 00000000 00000000  ................
  2790: 00000000 00000000 00000000 00000000  ................
  27a0: 00000000 00000000 00000000 00000000  ................
  27b0: 00000000 00000000 00000000 00000000  ................
  27c0: 00000000 00000000 00000000 00000000  ................
  27d0: 00000000 00000000 00000000 00000000  ................
  27e0: 00000000 00000000 00000000 00000000  ................
  27f0: 00000000 00000000 00000000 00000000  ................
  2800: 00000000 00000000 00000000 00000000  ................
  2810: 00000000 00000000 00000000 00000000  ................
  2820: 00000000 00000000 00000000 00000000  ................
  2830: 00000000 00000000 00000000 00000000  ................
  2840: 00000000 00000000 00000000 00000000  ................
  2850: 00000000 00000000 00000000 00000000  ................
  2860: 00000000 00000000 00000000 00000000  ................
  2870: 00000000 00000000 00000000 00000000  ................
  2880: 00000000 00000000 00000000 00000000  ................
  2890: 00000000 00000000 00000000 00000000  ................
  28a0: 00000000 00000000 00000000 00000000  ................
  28b0: 00000000 00000000 00000000 00000000  ................
  28c0: 00000000 00000000 00000000 00000000  ................
  28d0: 00000000 00000000 00000000 00000000  ................
  28e0: 00000000 00000000 00000000 00000000  ................
  28f0: 00000000 00000000 00000000 00000000  ................
  2900: 00000000 00000000 00000000 00000000  ................
  2910: 00000000 00000000 00000000 00000000  ................
  2920: 00000000 00000000 00000000 00000000  ................
  2930: 00000000 00000000 00000000 00000000  ................
  2940: 00000000 00000000 00000000 00000000  ................
  2950: 00000000 00000000 00000000 00000000  ................
  2960: 00000000 00000000 00000000 00000000  ................
  2970: 00000000 00000000 00000000 00000000  ................
  2980: 00000000 00000000 00000000 00000000  ................
  2990: 00000000 00000000 00000000 00000000  ................
  29a0: 00000000 00000000 00000000 00000000  ................
  29b0: 00000000 00000000 00000000 00000000  ................
  29c0: 00000000 00000000 00000000 00000000  ................
  29d0: 00000000 00000000 00000000 00000000  ................
  29e0: 00000000 00000000 00000000 00000000  ................
  29f0: 00000000 00000000 00000000 00000000  ................
  2a00: 00000000 00000000 00000000 00000000  ................
  2a10: 00000000 00000000 00000000 00000000  ................
  2a20: 00000000 00000000 00000000 00000000  ................
  2a30: 00000000 00000000 00000000 00000000  ................
  2a40: 00000000 00000000 00000000 00000000  ................
  2a50: 00000000 00000000 00000000 00000000  ................
  2a60: 00000000 00000000 00000000 00000000  ................
  2a70: 00000000 00000000 00000000 00000000  ................
  2a80: 00000000 00000000 00000000 00000000  ................
  2a90: 00000000 00000000 00000000 00000000  ................
  2aa0: 00000000 00000000 00000000 00000000  ................
  2ab0: 00000000 00000000 00000000 00000000  ................
  2ac0: 00000000 00000000 00000000 00000000  ................
  2ad0: 00000000 00000000 00000000 00000000  ................
  2ae0: 00000000 00000000 00000000 00000000  ................
  2af0: 00000000 00000000 00000000 00000000  ................
  2b00: 00000000 00000000 00000000 00000000  ................
  2b10: 00000000 00000000 00000000 00000000  ................
  2b20: 00000000 00000000 00000000 00000000  ................
  2b30: 00000000 00000000 00000000 00000000  ................
  2b40: 00000000 00000000 00000000 00000000  ................
  2b50: 00000000 00000000 00000000 00000000  ................
  2b60: 00000000 00000000 00000000 00000000  ................
  2b70: 00000000 00000000 00000000 00000000  ................
  2b80: 00000000 00000000 00000000 00000000  ................
  2b90: 00000000 00000000 00000000 00000000  ................
  2ba0: 00000000 00000000 00000000 00000000  ................
  2bb0: 00000000 00000000 00000000 00000000  ................
  2bc0: 00000000 00000000 00000000 00000000  ................
  2bd0: 00000000 00000000 00000000 00000000  ................
  2be0: 00000000 00000000 00000000 00000000  ................
  2bf0: 00000000 00000000 00000000 00000000  ................
  2c00: 00000000 00000000 00000000 00000000  ................
  2c10: 00000000 00000000 00000000 00000000  ................
  2c20: 00000000 00000000 00000000 00000000  ................
  2c30: 00000000 00000000 00000000 00000000  ................
  2c40: 00000000 00000000 00000000 00000000  ................
  2c50: 00000000 00000000 00000000 00000000  ................
  2c60: 00000000 00000000 00000000 00000000  ................
  2c70: 00000000 00000000 00000000 00000000  ................
  2c80: 00000000 00000000 00000000 00000000  ................
  2c90: 00000000 00000000 00000000 00000000  ................
  2ca0: 00000000 00000000 00000000 00000000  ................
  2cb0: 00000000 00000000 00000000 00000000  ................
  2cc0: 00000000 00000000 00000000 00000000  ................
  2cd0: 00000000 00000000 00000000 00000000  ................
  2ce0: 00000000 00000000 00000000 00000000  ................
  2cf0: 00000000 00000000 00000000 00000000  ................
  2d00: 00000000 00000000 00000000 00000000  ................
  2d10: 00000000 00000000 00000000 00000000  ................
  2d20: 00000000 00000000 00000000 00000000  ................
  2d30: 00000000 00000000 00000000 00000000  ................
  2d40: 00000000 00000000 00000000 00000000  ................
  2d50: 00000000 00000000 00000000 00000000  ................
  2d60: 00000000 00000000 00000000 00000000  ................
  2d70: 00000000 00000000 00000000 00000000  ................
  2d80: 00000000 00000000 00000000 00000000  ................
  2d90: 00000000 00000000 00000000 00000000  ................
  2da0: 00000000 00000000 00000000 00000000  ................
  2db0: 00000000 00000000 00000000 00000000  ................
  2dc0: 00000000 00000000 00000000 00000000  ................
  2dd0: 00000000 00000000 00000000 00000000  ................
  2de0: 00000000 00000000 00000000 00000000  ................
  2df0: 00000000 00000000 00000000 00000000  ................
  2e00: 00000000 00000000 00000000 00000000  ................
  2e10: 00000000 00000000 00000000 00000000  ................
  2e20: 00000000 00000000 00000000 00000000  ................
  2e30: 00000000 00000000 00000000 00000000  ................
  2e40: 00000000 00000000 00000000 00000000  ................
  2e50: 00000000 00000000 00000000 00000000  ................
  2e60: 00000000 00000000 00000000 00000000  ................
  2e70: 00000000 00000000 00000000 00000000  ................
  2e80: 00000000 00000000 00000000 00000000  ................
  2e90: 00000000 00000000 00000000 00000000  ................
  2ea0: 00000000 00000000 00000000 00000000  ................
  2eb0: 00000000 00000000 00000000 00000000  ................
  2ec0: 00000000 00000000 00000000 00000000  ................
  2ed0: 00000000 00000000 00000000 00000000  ................
  2ee0: 00000000 00000000 00000000 00000000  ................
  2ef0: 00000000 00000000 00000000 00000000  ................
  2f00: 00000000 00000000 00000000 00000000  ................
  2f10: 00000000 00000000 00000000 00000000  ................
  2f20: 00000000 00000000 00000000 00000000  ................
  2f30: 00000000 00000000 00000000 00000000  ................
  2f40: 00000000 00000000 00000000 00000000  ................
  2f50: 00000000 00000000 00000000 00000000  ................
  2f60: 00000000 00000000 00000000 00000000  ................
  2f70: 00000000 00000000 00000000 00000000  ................
  2f80: 00000000 00000000 00000000 00000000  ................
  2f90: 00000000 00000000 00000000 00000000  ................
  2fa0: 00000000 00000000 00000000 00000000  ................
  2fb0: 00000000 00000000 00000000 00000000  ................
  2fc0: 00000000 00000000 00000000 00000000  ................
  2fd0: 00000000 00000000 00000000 00000000  ................
  2fe0: 00000000 00000000 00000000 00000000  ................
  2ff0: 00000000 00000000 00000000 00000000  ................
  3000: 00000000 00000000 00000000 00000000  ................
  3010: 00000000 00000000 00000000 00000000  ................
  3020: 00000000 00000000 00000000 00000000  ................
  3030: 00000000 00000000 00000000 00000000  ................
  3040: 00000000 00000000 00000000 00000000  ................
  3050: 00000000 00000000 00000000 00000000  ................
  3060: 00000000 00000000 00000000 00000000  ................
  3070: 00000000 00000000 00000000 00000000  ................
  3080: 00000000 00000000 00000000 00000000  ................
  3090: 00000000 00000000 00000000 00000000  ................
  30a0: 00000000 00000000 00000000 00000000  ................
  30b0: 00000000 00000000 00000000 00000000  ................
  30c0: 00000000 00000000 00000000 00000000  ................
  30d0: 00000000 00000000 00000000 00000000  ................
  30e0: 00000000 00000000 00000000 00000000  ................
  30f0: 00000000 00000000 00000000 00000000  ................
  3100: 00000000 00000000 00000000 00000000  ................
  3110: 00000000 00000000 00000000 00000000  ................
  3120: 00000000 00000000 00000000 00000000  ................
  3130: 00000000 00000000 00000000 00000000  ................
  3140: 00000000 00000000 00000000 00000000  ................
  3150: 00000000 00000000 00000000 00000000  ................
  3160: 00000000 00000000 00000000 00000000  ................
  3170: 00000000 00000000 00000000 00000000  ................
  3180: 00000000 00000000 00000000 00000000  ................
  3190: 00000000 00000000 00000000 00000000  ................
  31a0: 00000000 00000000 00000000 00000000  ................
  31b0: 00000000 00000000 00000000 00000000  ................
  31c0: 00000000 00000000 00000000 00000000  ................
  31d0: 00000000 00000000 00000000 00000000  ................
  31e0: 00000000 00000000 00000000 00000000  ................
  31f0: 00000000 00000000 00000000 00000000  ................
  3200: 00000000 00000000 00000000 00000000  ................
  3210: 00000000 00000000 00000000 00000000  ................
  3220: 00000000 00000000 00000000 00000000  ................
  3230: 00000000 00000000 00000000 00000000  ................
  3240: 00000000 00000000 00000000 00000000  ................
  3250: 00000000 00000000 00000000 00000000  ................
  3260: 00000000 00000000 00000000 00000000  ................
  3270: 00000000 00000000 00000000 00000000  ................
  3280: 00000000 00000000 00000000 00000000  ................
  3290: 00000000 00000000 00000000 00000000  ................
  32a0: 00000000 00000000 00000000 00000000  ................
  32b0: 00000000 00000000 00000000 00000000  ................
  32c0: 00000000 00000000 00000000 00000000  ................
  32d0: 00000000 00000000 00000000 00000000  ................
  32e0: 00000000 00000000 00000000 00000000  ................
  32f0: 00000000 00000000 00000000 00000000  ................
  3300: 00000000 00000000 00000000 00000000  ................
  3310: 00000000 00000000 00000000 00000000  ................
  3320: 00000000 00000000 00000000 00000000  ................
  3330: 00000000 00000000 00000000 00000000  ................
  3340: 00000000 00000000 00000000 00000000  ................
  3350: 00000000 00000000 00000000 00000000  ................
  3360: 00000000 00000000 00000000 00000000  ................
  3370: 00000000 00000000 00000000 00000000  ................
  3380: 00000000 00000000 00000000 00000000  ................
  3390: 00000000 00000000 00000000 00000000  ................
  33a0: 00000000 00000000 00000000 00000000  ................
  33b0: 00000000 00000000 00000000 00000000  ................
  33c0: 00000000 00000000 00000000 00000000  ................
  33d0: 00000000 00000000 00000000 00000000  ................
  33e0: 00000000 00000000 00000000 00000000  ................
  33f0: 00000000 00000000 00000000 00000000  ................
  3400: 00000000 00000000 00000000 00000000  ................
  3410: 00000000 00000000 00000000 00000000  ................
  3420: 00000000 00000000 00000000 00000000  ................
  3430: 00000000 00000000 00000000 00000000  ................
  3440: 00000000 00000000 00000000 00000000  ................
  3450: 00000000 00000000 00000000 00000000  ................
  3460: 00000000 00000000 00000000 00000000  ................
  3470: 00000000 00000000 00000000 00000000  ................
  3480: 00000000 00000000 00000000 00000000  ................
  3490: 00000000 00000000 00000000 00000000  ................
  34a0: 00000000 00000000 00000000 00000000  ................
  34b0: 00000000 00000000 00000000 00000000  ................
  34c0: 00000000 00000000 00000000 00000000  ................
  34d0: 00000000 00000000 00000000 00000000  ................
  34e0: 00000000 00000000 00000000 00000000  ................
  34f0: 00000000 00000000 00000000 00000000  ................
  3500: 00000000 00000000 00000000 00000000  ................
  3510: 00000000 00000000 00000000 00000000  ................
  3520: 00000000 00000000 00000000 00000000  ................
  3530: 00000000 00000000 00000000 00000000  ................
  3540: 00000000 00000000 00000000 00000000  ................
  3550: 00000000 00000000 00000000 00000000  ................
  3560: 00000000 00000000 00000000 00000000  ................
  3570: 00000000 00000000 00000000 00000000  ................
  3580: 00000000 00000000 00000000 00000000  ................
  3590: 00000000 00000000 00000000 00000000  ................
  35a0: 00000000 00000000 00000000 00000000  ................
  35b0: 00000000 00000000 00000000 00000000  ................
  35c0: 00000000 00000000 00000000 00000000  ................
  35d0: 00000000 00000000 00000000 00000000  ................
  35e0: 00000000 00000000 00000000 00000000  ................
  35f0: 00000000 00000000 00000000 00000000  ................
  3600: 00000000 00000000 00000000 00000000  ................
  3610: 00000000 00000000 00000000 00000000  ................
  3620: 00000000 00000000 00000000 00000000  ................
  3630: 00000000 00000000 00000000 00000000  ................
  3640: 00000000 00000000 00000000 00000000  ................
  3650: 00000000 00000000 00000000 00000000  ................
  3660: 00000000 00000000 00000000 00000000  ................
  3670: 00000000 00000000 00000000 00000000  ................
  3680: 00000000 00000000 00000000 00000000  ................
  3690: 00000000 00000000 00000000 00000000  ................
  36a0: 00000000 00000000 00000000 00000000  ................
  36b0: 00000000 00000000 00000000 00000000  ................
  36c0: 00000000 00000000 00000000 00000000  ................
  36d0: 00000000 00000000 00000000 00000000  ................
  36e0: 00000000 00000000 00000000 00000000  ................
  36f0: 00000000 00000000 00000000 00000000  ................
  3700: 00000000 00000000 00000000 00000000  ................
  3710: 00000000 00000000 00000000 00000000  ................
  3720: 00000000 00000000 00000000 00000000  ................
  3730: 00000000 00000000 00000000 00000000  ................
  3740: 00000000 00000000 00000000 00000000  ................
  3750: 00000000 00000000 00000000 00000000  ................
  3760: 00000000 00000000 00000000 00000000  ................
  3770: 00000000 00000000 00000000 00000000  ................
  3780: 00000000 00000000 00000000 00000000  ................
  3790: 00000000 00000000 00000000 00000000  ................
  37a0: 00000000 00000000 00000000 00000000  ................
  37b0: 00000000 00000000 00000000 00000000  ................
  37c0: 00000000 00000000 00000000 00000000  ................
  37d0: 00000000 00000000 00000000 00000000  ................
  37e0: 00000000 00000000 00000000 00000000  ................
  37f0: 00000000 00000000 00000000 00000000  ................
  3800: 00000000 00000000 00000000 00000000  ................
  3810: 00000000 00000000 00000000 00000000  ................
  3820: 00000000 00000000 00000000 00000000  ................
  3830: 00000000 00000000 00000000 00000000  ................
  3840: 00000000 00000000 00000000 00000000  ................
  3850: 00000000 00000000 00000000 00000000  ................
  3860: 00000000 00000000 00000000 00000000  ................
  3870: 00000000 00000000 00000000 00000000  ................
  3880: 00000000 00000000 00000000 00000000  ................
  3890: 00000000 00000000 00000000 00000000  ................
  38a0: 00000000 00000000 00000000 00000000  ................
  38b0: 00000000 00000000 00000000 00000000  ................
  38c0: 00000000 00000000 00000000 00000000  ................
  38d0: 00000000 00000000 00000000 00000000  ................
  38e0: 00000000 00000000 00000000 00000000  ................
  38f0: 00000000 00000000 00000000 00000000  ................
  3900: 00000000 00000000 00000000 00000000  ................
  3910: 00000000 00000000 00000000 00000000  ................
  3920: 00000000 00000000 00000000 00000000  ................
  3930: 00000000 00000000 00000000 00000000  ................
  3940: 00000000 00000000 00000000 00000000  ................
  3950: 00000000 00000000 00000000 00000000  ................
  3960: 00000000 00000000 00000000 00000000  ................
  3970: 00000000 00000000 00000000 00000000  ................
  3980: 00000000 00000000 00000000 00000000  ................
  3990: 00000000 00000000 00000000 00000000  ................
  39a0: 00000000 00000000 00000000 00000000  ................
  39b0: 00000000 00000000 00000000 00000000  ................
  39c0: 00000000 00000000 00000000 00000000  ................
  39d0: 00000000 00000000 00000000 00000000  ................
  39e0: 00000000 00000000 00000000 00000000  ................
  39f0: 00000000 00000000 00000000 00000000  ................
  3a00: 00000000 00000000 00000000 00000000  ................
  3a10: 00000000 00000000 00000000 00000000  ................
  3a20: 00000000 00000000 00000000 00000000  ................
  3a30: 00000000 00000000 00000000 00000000  ................
  3a40: 00000000 00000000 00000000 00000000  ................
  3a50: 00000000 00000000 00000000 00000000  ................
  3a60: 00000000 00000000 00000000 00000000  ................
  3a70: 00000000 00000000 00000000 00000000  ................
  3a80: 00000000 00000000 00000000 00000000  ................
  3a90: 00000000 00000000 00000000 00000000  ................
  3aa0: 00000000 00000000 00000000 00000000  ................
  3ab0: 00000000 00000000 00000000 00000000  ................
  3ac0: 00000000 00000000 00000000 00000000  ................
  3ad0: 00000000 00000000 00000000 00000000  ................
  3ae0: 00000000 00000000 00000000 00000000  ................
  3af0: 00000000 00000000 00000000 00000000  ................
  3b00: 00000000 00000000 00000000 00000000  ................
  3b10: 00000000 00000000 00000000 00000000  ................
  3b20: 00000000 00000000 00000000 00000000  ................
  3b30: 00000000 00000000 00000000 00000000  ................
  3b40: 00000000 00000000 00000000 00000000  ................
  3b50: 00000000 00000000 00000000 00000000  ................
  3b60: 00000000 00000000 00000000 00000000  ................
  3b70: 00000000 00000000 00000000 00000000  ................
  3b80: 00000000 00000000 00000000 00000000  ................
  3b90: 00000000 00000000 00000000 00000000  ................
  3ba0: 00000000 00000000 00000000 00000000  ................
  3bb0: 00000000 00000000 00000000 00000000  ................
  3bc0: 00000000 00000000 00000000 00000000  ................
  3bd0: 00000000 00000000 00000000 00000000  ................
  3be0: 00000000 00000000 00000000 00000000  ................
  3bf0: 00000000 00000000 00000000 00000000  ................
  3c00: 00000000 00000000 00000000 00000000  ................
  3c10: 00000000 00000000 00000000 00000000  ................
  3c20: 00000000 00000000 00000000 00000000  ................
  3c30: 00000000 00000000 00000000 00000000  ................
  3c40: 00000000 00000000 00000000 00000000  ................
  3c50: 00000000 00000000 00000000 00000000  ................
  3c60: 00000000 00000000 00000000 00000000  ................
  3c70: 00000000 00000000 00000000 00000000  ................
  3c80: 00000000 00000000 00000000 00000000  ................
  3c90: 00000000 00000000 00000000 00000000  ................
  3ca0: 00000000 00000000 00000000 00000000  ................
  3cb0: 00000000 00000000 00000000 00000000  ................
  3cc0: 00000000 00000000 00000000 00000000  ................
  3cd0: 00000000 00000000 00000000 00000000  ................
  3ce0: 00000000 00000000 00000000 00000000  ................
  3cf0: 00000000 00000000 00000000 00000000  ................
  3d00: 00000000 00000000 00000000 00000000  ................
  3d10: 00000000 00000000 00000000 00000000  ................
  3d20: 00000000 00000000 00000000 00000000  ................
  3d30: 00000000 00000000 00000000 00000000  ................
  3d40: 00000000 00000000 00000000 00000000  ................
  3d50: 00000000 00000000 00000000 00000000  ................
  3d60: 00000000 00000000 00000000 00000000  ................
  3d70: 00000000 00000000 00000000 00000000  ................
  3d80: 00000000 00000000 00000000 00000000  ................
  3d90: 00000000 00000000 00000000 00000000  ................
  3da0: 00000000 00000000 00000000 00000000  ................
  3db0: 00000000 00000000 00000000 00000000  ................
  3dc0: 00000000 00000000 00000000 00000000  ................
  3dd0: 00000000 00000000 00000000 00000000  ................
  3de0: 00000000 00000000 00000000 00000000  ................
  3df0: 00000000 00000000 00000000 00000000  ................
  3e00: 00000000 00000000 00000000 00000000  ................
  3e10: 00000000 00000000 00000000 00000000  ................
  3e20: 00000000 00000000 00000000 00000000  ................
  3e30: 00000000 00000000 00000000 00000000  ................
  3e40: 00000000 00000000 00000000 00000000  ................
  3e50: 00000000 00000000 00000000 00000000  ................
  3e60: 00000000 00000000 00000000 00000000  ................
  3e70: 00000000 00000000 00000000 00000000  ................
  3e80: 00000000 00000000 00000000 00000000  ................
  3e90: 00000000 00000000 00000000 00000000  ................
  3ea0: 00000000 00000000 00000000 00000000  ................
  3eb0: 00000000 00000000 00000000 00000000  ................
  3ec0: 00000000 00000000 00000000 00000000  ................
  3ed0: 00000000 00000000 00000000 00000000  ................
  3ee0: 00000000 00000000 00000000 00000000  ................
  3ef0: 00000000 00000000 00000000 00000000  ................
  3f00: 00000000 00000000 00000000 00000000  ................
  3f10: 00000000 00000000 00000000 00000000  ................
  3f20: 00000000 00000000 00000000 00000000  ................
  3f30: 00000000 00000000 00000000 00000000  ................
  3f40: 00000000 00000000 00000000 00000000  ................
  3f50: 00000000 00000000 00000000 00000000  ................
  3f60: 00000000 00000000 00000000 00000000  ................
  3f70: 00000000 00000000 00000000 00000000  ................
  3f80: 00000000 00000000 00000000 00000000  ................
  3f90: 00000000 00000000 00000000 00000000  ................
  3fa0: 00000000 00000000 00000000 00000000  ................
  3fb0: 00000000 00000000 00000000 00000000  ................
  3fc0: 00000000 00000000 00000000 00000000  ................
  3fd0: 00000000 00000000 00000000 00000000  ................
  3fe0: 00000000 00000000 00000000 00000000  ................
  3ff0: 00000000 00000000 00000000 00000000  ................
  4000: 00000000 00000000 00000000 00000000  ................
  4010: 00000000 00000000 00000000 00000000  ................
  4020: 00000000 00000000 00000000 00000000  ................
  4030: 00000000 00000000 00000000 00000000  ................
  4040: 00000000 00000000 00000000 00000000  ................
  4050: 00000000 00000000 00000000 00000000  ................
  4060: 00000000 00000000 00000000 00000000  ................
  4070: 00000000 00000000 00000000 00000000  ................
  4080: 00000000 00000000 00000000 00000000  ................
  4090: 00000000 00000000 00000000 00000000  ................
  40a0: 00000000 00000000 00000000 00000000  ................
  40b0: 00000000 00000000 00000000 00000000  ................
  40c0: 00000000 00000000 00000000 00000000  ................
  40d0: 00000000 00000000 00000000 00000000  ................
  40e0: 00000000 00000000 00000000 00000000  ................
  40f0: 00000000 00000000 00000000 00000000  ................
  4100: 00000000 00000000 00000000 00000000  ................
  4110: 00000000 00000000 00000000 00000000  ................
  4120: 00000000 00000000 00000000 00000000  ................
  4130: 00000000 00000000 00000000 00000000  ................
  4140: 00000000 00000000 00000000 00000000  ................
  4150: 00000000 00000000 00000000 00000000  ................
  4160: 00000000 00000000 00000000 00000000  ................
  4170: 00000000 00000000 00000000 00000000  ................
  4180: 00000000 00000000 00000000 00000000  ................
  4190: 00000000 00000000 00000000 00000000  ................
  41a0: 00000000 00000000 00000000 00000000  ................
  41b0: 00000000 00000000 00000000 00000000  ................
  41c0: 00000000 00000000 00000000 00000000  ................
  41d0: 00000000 00000000 00000000 00000000  ................
  41e0: 00000000 00000000 00000000 00000000  ................
  41f0: 00000000 00000000 00000000 00000000  ................
  4200: 00000000 00000000 00000000 00000000  ................
  4210: 00000000 00000000 00000000 00000000  ................
  4220: 00000000 00000000 00000000 00000000  ................
  4230: 00000000 00000000 00000000 00000000  ................
  4240: 00000000 00000000 00000000 00000000  ................
  4250: 00000000 00000000 00000000 00000000  ................
  4260: 00000000 00000000 00000000 00000000  ................
  4270: 00000000 00000000 00000000 00000000  ................
  4280: 00000000 00000000 00000000 00000000  ................
  4290: 00000000 00000000 00000000 00000000  ................
  42a0: 00000000 00000000 00000000 00000000  ................
  42b0: 00000000 00000000 00000000 00000000  ................
  42c0: 00000000 00000000 00000000 00000000  ................
  42d0: 00000000 00000000 00000000 00000000  ................
  42e0: 00000000 00000000 00000000 00000000  ................
  42f0: 00000000 00000000 00000000 00000000  ................
  4300: 00000000 00000000 00000000 00000000  ................
  4310: 00000000 00000000 00000000 00000000  ................
  4320: 00000000 00000000 00000000 00000000  ................
  4330: 00000000 00000000 00000000 00000000  ................
  4340: 00000000 00000000 00000000 00000000  ................
  4350: 00000000 00000000 00000000 00000000  ................
  4360: 00000000 00000000 00000000 00000000  ................
  4370: 00000000 00000000 00000000 00000000  ................
  4380: 00000000 00000000 00000000 00000000  ................
  4390: 00000000 00000000 00000000 00000000  ................
  43a0: 00000000 00000000 00000000 00000000  ................
  43b0: 00000000 00000000 00000000 00000000  ................
  43c0: 00000000 00000000 00000000 00000000  ................
  43d0: 00000000 00000000 00000000 00000000  ................
  43e0: 00000000 00000000 00000000 00000000  ................
  43f0: 00000000 00000000 00000000 00000000  ................
  4400: 00000000 00000000 00000000 00000000  ................
  4410: 00000000 00000000 00000000 00000000  ................
  4420: 00000000 00000000 00000000 00000000  ................
  4430: 00000000 00000000 00000000 00000000  ................
  4440: 00000000 00000000 00000000 00000000  ................
  4450: 00000000 00000000 00000000 00000000  ................
  4460: 00000000 00000000 00000000 00000000  ................
  4470: 00000000 00000000 00000000 00000000  ................
  4480: 00000000 00000000 00000000 00000000  ................
  4490: 00000000 00000000 00000000 00000000  ................
  44a0: 00000000 00000000 00000000 00000000  ................
  44b0: 00000000 00000000 00000000 00000000  ................
  44c0: 00000000 00000000 00000000 00000000  ................
  44d0: 00000000 00000000 00000000 00000000  ................
  44e0: 00000000 00000000 00000000 00000000  ................
  44f0: 00000000 00000000 00000000 00000000  ................
  4500: 00000000 00000000 00000000 00000000  ................
  4510: 00000000 00000000 00000000 00000000  ................
  4520: 00000000 00000000 00000000 00000000  ................
  4530: 00000000 00000000 00000000 00000000  ................
  4540: 00000000 00000000 00000000 00000000  ................
  4550: 00000000 00000000 00000000 00000000  ................
  4560: 00000000 00000000 00000000 00000000  ................
  4570: 00000000 00000000 00000000 00000000  ................
  4580: 00000000 00000000 00000000 00000000  ................
  4590: 00000000 00000000 00000000 00000000  ................
  45a0: 00000000 00000000 00000000 00000000  ................
  45b0: 00000000 00000000 00000000 00000000  ................
  45c0: 00000000 00000000 00000000 00000000  ................
  45d0: 00000000 00000000 00000000 00000000  ................
  45e0: 00000000 00000000 00000000 00000000  ................
  45f0: 00000000 00000000 00000000 00000000  ................
  4600: 00000000 00000000 00000000 00000000  ................
  4610: 00000000 00000000 00000000 00000000  ................
  4620: 00000000 00000000 00000000 00000000  ................
  4630: 00000000 00000000 00000000 00000000  ................
  4640: 00000000 00000000 00000000 00000000  ................
  4650: 00000000 00000000 00000000 00000000  ................
  4660: 00000000 00000000 00000000 00000000  ................
  4670: 00000000 00000000 00000000 00000000  ................
  4680: 00000000 00000000 00000000 00000000  ................
  4690: 00000000 00000000 00000000 00000000  ................
  46a0: 00000000 00000000 00000000 00000000  ................
  46b0: 00000000 00000000 00000000 00000000  ................
  46c0: 00000000 00000000 00000000 00000000  ................
  46d0: 00000000 00000000 00000000 00000000  ................
  46e0: 00000000 00000000 00000000 00000000  ................
  46f0: 00000000 00000000 00000000 00000000  ................
  4700: 00000000 00000000 00000000 00000000  ................
  4710: 00000000 00000000 00000000 00000000  ................
  4720: 00000000 00000000 00000000 00000000  ................
  4730: 00000000 00000000 00000000 00000000  ................
  4740: 00000000 00000000 00000000 00000000  ................
  4750: 00000000 00000000 00000000 00000000  ................
  4760: 00000000 00000000 00000000 00000000  ................
  4770: 00000000 00000000 00000000 00000000  ................
  4780: 00000000 00000000 00000000 00000000  ................
  4790: 00000000 00000000 00000000 00000000  ................
  47a0: 00000000 00000000 00000000 00000000  ................
  47b0: 00000000 00000000 00000000 00000000  ................
  47c0: 00000000 00000000 00000000 00000000  ................
  47d0: 00000000 00000000 00000000 00000000  ................
  47e0: 00000000 00000000 00000000 00000000  ................
  47f0: 00000000 00000000 00000000 00000000  ................
  4800: 00000000 00000000 00000000 00000000  ................
  4810: 00000000 00000000 00000000 00000000  ................
  4820: 00000000 00000000 00000000 00000000  ................
  4830: 00000000 00000000 00000000 00000000  ................
  4840: 00000000 00000000 00000000 00000000  ................
  4850: 00000000 00000000 00000000 00000000  ................
  4860: 00000000 00000000 00000000 00000000  ................
  4870: 00000000 00000000 00000000 00000000  ................
  4880: 00000000 00000000 00000000 00000000  ................
  4890: 00000000 00000000 00000000 00000000  ................
  48a0: 00000000 00000000 00000000 00000000  ................
  48b0: 00000000 00000000 00000000 00000000  ................
  48c0: 00000000 00000000 00000000 00000000  ................
  48d0: 00000000 00000000 00000000 00000000  ................
  48e0: 00000000 00000000 00000000 00000000  ................
  48f0: 00000000 00000000 00000000 00000000  ................
  4900: 00000000 00000000 00000000 00000000  ................
  4910: 00000000 00000000 00000000 00000000  ................
  4920: 00000000 00000000 00000000 00000000  ................
  4930: 00000000 00000000 00000000 00000000  ................
  4940: 00000000 00000000 00000000 00000000  ................
  4950: 00000000 00000000 00000000 00000000  ................
  4960: 00000000 00000000 00000000 00000000  ................
  4970: 00000000 00000000 00000000 00000000  ................
  4980: 00000000 00000000 00000000 00000000  ................
  4990: 00000000 00000000 00000000 00000000  ................
  49a0: 00000000 00000000 00000000 00000000  ................
  49b0: 00000000 00000000 00000000 00000000  ................
  49c0: 00000000 00000000 00000000 00000000  ................
  49d0: 00000000 00000000 00000000 00000000  ................
  49e0: 00000000 00000000 00000000 00000000  ................
  49f0: 00000000 00000000 00000000 00000000  ................
  4a00: 00000000 00000000 00000000 00000000  ................
  4a10: 00000000 00000000 00000000 00000000  ................
  4a20: 00000000 00000000 00000000 00000000  ................
  4a30: 00000000 00000000 00000000 00000000  ................
  4a40: 00000000 00000000 00000000 00000000  ................
  4a50: 00000000 00000000 00000000 00000000  ................
  4a60: 00000000 00000000 00000000 00000000  ................
  4a70: 00000000 00000000 00000000 00000000  ................
  4a80: 00000000 00000000 00000000 00000000  ................
  4a90: 00000000 00000000 00000000 00000000  ................
  4aa0: 00000000 00000000 00000000 00000000  ................
  4ab0: 00000000 00000000 00000000 00000000  ................
  4ac0: 00000000 00000000 00000000 00000000  ................
  4ad0: 00000000 00000000 00000000 00000000  ................
  4ae0: 00000000 00000000 00000000 00000000  ................
  4af0: 00000000 00000000 00000000 00000000  ................
  4b00: 00000000 00000000 00000000 00000000  ................
  4b10: 00000000 00000000 00000000 00000000  ................
  4b20: 00000000 00000000 00000000 00000000  ................
  4b30: 00000000 00000000 00000000 00000000  ................
  4b40: 00000000 00000000 00000000 00000000  ................
  4b50: 00000000 00000000 00000000 00000000  ................
  4b60: 00000000 00000000 00000000 00000000  ................
  4b70: 00000000 00000000 00000000 00000000  ................
  4b80: 00000000 00000000 00000000 00000000  ................
  4b90: 00000000 00000000 00000000 00000000  ................
  4ba0: 00000000 00000000 00000000 00000000  ................
  4bb0: 00000000 00000000 00000000 00000000  ................
  4bc0: 00000000 00000000 00000000 00000000  ................
  4bd0: 00000000 00000000 00000000 00000000  ................
  4be0: 00000000 00000000 00000000 00000000  ................
  4bf0: 00000000 00000000 00000000 00000000  ................
  4c00: 00000000 00000000 00000000 00000000  ................
  4c10: 00000000 00000000 00000000 00000000  ................
  4c20: 00000000 00000000 00000000 00000000  ................
  4c30: 00000000 00000000 00000000 00000000  ................
  4c40: 00000000 00000000 00000000 00000000  ................
  4c50: 00000000 00000000 00000000 00000000  ................
  4c60: 00000000 00000000 00000000 00000000  ................
  4c70: 00000000 00000000 00000000 00000000  ................
  4c80: 00000000 00000000 00000000 00000000  ................
  4c90: 00000000 00000000 00000000 00000000  ................
  4ca0: 00000000 00000000 00000000 00000000  ................
  4cb0: 00000000 00000000 00000000 00000000  ................
  4cc0: 00000000 00000000 00000000 00000000  ................
  4cd0: 00000000 00000000 00000000 00000000  ................
  4ce0: 00000000 00000000 00000000 00000000  ................
  4cf0: 00000000 00000000 00000000 00000000  ................
  4d00: 00000000 00000000 00000000 00000000  ................
  4d10: 00000000 00000000 00000000 00000000  ................
  4d20: 00000000 00000000 00000000 00000000  ................
  4d30: 00000000 00000000 00000000 00000000  ................
  4d40: 00000000 00000000 00000000 00000000  ................
  4d50: 00000000 00000000 00000000 00000000  ................
  4d60: 00000000 00000000 00000000 00000000  ................
  4d70: 00000000 00000000 00000000 00000000  ................
  4d80: 00000000 00000000 00000000 00000000  ................
  4d90: 00000000 00000000 00000000 00000000  ................
  4da0: 00000000 00000000 00000000 00000000  ................
  4db0: 00000000 00000000 00000000 00000000  ................
  4dc0: 00000000 00000000 00000000 00000000  ................
  4dd0: 00000000 00000000 00000000 00000000  ................
  4de0: 00000000 00000000 00000000 00000000  ................
  4df0: 00000000 00000000 00000000 00000000  ................
  4e00: 00000000 00000000 00000000 00000000  ................
  4e10: 00000000 00000000 00000000 00000000  ................
  4e20: 00000000 00000000 00000000 00000000  ................
  4e30: 00000000 00000000 00000000 00000000  ................
  4e40: 00000000 00000000 00000000 00000000  ................
  4e50: 00000000 00000000 00000000 00000000  ................
  4e60: 00000000 00000000 00000000 00000000  ................
  4e70: 00000000 00000000 00000000 00000000  ................
  4e80: 00000000 00000000 00000000 00000000  ................
  4e90: 00000000 00000000 00000000 00000000  ................
  4ea0: 00000000 00000000 00000000 00000000  ................
  4eb0: 00000000 00000000 00000000 00000000  ................
  4ec0: 00000000 00000000 00000000 00000000  ................
  4ed0: 00000000 00000000 00000000 00000000  ................
  4ee0: 00000000 00000000 00000000 00000000  ................
  4ef0: 00000000 00000000 00000000 00000000  ................
  4f00: 00000000 00000000 00000000 00000000  ................
  4f10: 00000000 00000000 00000000 00000000  ................
  4f20: 00000000 00000000 00000000 00000000  ................
  4f30: 00000000 00000000 00000000 00000000  ................
  4f40: 00000000 00000000 00000000 00000000  ................
  4f50: 00000000 00000000 00000000 00000000  ................
  4f60: 00000000 00000000 00000000 00000000  ................
  4f70: 00000000 00000000 00000000 00000000  ................
  4f80: 00000000 00000000 00000000 00000000  ................
  4f90: 00000000 00000000 00000000 00000000  ................
  4fa0: 00000000 00000000 00000000 00000000  ................
  4fb0: 00000000 00000000 00000000 00000000  ................
  4fc0: 00000000 00000000 00000000 00000000  ................
  4fd0: 00000000 00000000 00000000 00000000  ................
  4fe0: 00000000 00000000 00000000 00000000  ................
  4ff0: 00000000 00000000 00000000 00000000  ................
  5000: 00000000 00000000 00000000 00000000  ................
  5010: 00000000 00000000 00000000 00000000  ................
  5020: 00000000 00000000 00000000 00000000  ................
  5030: 00000000 00000000 00000000 00000000  ................
  5040: 00000000 00000000 00000000 00000000  ................
  5050: 00000000 00000000 00000000 00000000  ................
  5060: 00000000 00000000 00000000 00000000  ................
  5070: 00000000 00000000 00000000 00000000  ................
  5080: 00000000 00000000 00000000 00000000  ................
  5090: 00000000 00000000 00000000 00000000  ................
  50a0: 00000000 00000000 00000000 00000000  ................
  50b0: 00000000 00000000 00000000 00000000  ................
  50c0: 00000000 00000000 00000000 00000000  ................
  50d0: 00000000 00000000 00000000 00000000  ................
  50e0: 00000000 00000000 00000000 00000000  ................
  50f0: 00000000 00000000 00000000 00000000  ................
  5100: 00000000 00000000 00000000 00000000  ................
  5110: 00000000 00000000 00000000 00000000  ................
  5120: 00000000 00000000 00000000 00000000  ................
  5130: 00000000 00000000 00000000 00000000  ................
  5140: 00000000 00000000 00000000 00000000  ................
  5150: 00000000 00000000 00000000 00000000  ................
  5160: 00000000 00000000 00000000 00000000  ................
  5170: 00000000 00000000 00000000 00000000  ................
  5180: 00000000 00000000 00000000 00000000  ................
  5190: 00000000 00000000 00000000 00000000  ................
  51a0: 00000000 00000000 00000000 00000000  ................
  51b0: 00000000 00000000 00000000 00000000  ................
  51c0: 00000000 00000000 00000000 00000000  ................
  51d0: 00000000 00000000 00000000 00000000  ................
  51e0: 00000000 00000000 00000000 00000000  ................
  51f0: 00000000 00000000 00000000 00000000  ................
  5200: 00000000 00000000 00000000 00000000  ................
  5210: 00000000 00000000 00000000 00000000  ................
  5220: 00000000 00000000 00000000 00000000  ................
  5230: 00000000 00000000 00000000 00000000  ................
  5240: 00000000 00000000 00000000 00000000  ................
  5250: 00000000 00000000 00000000 00000000  ................
  5260: 00000000 00000000 00000000 00000000  ................
  5270: 00000000 00000000 00000000 00000000  ................
  5280: 00000000 00000000 00000000 00000000  ................
  5290: 00000000 00000000 00000000 00000000  ................
  52a0: 00000000 00000000 00000000 00000000  ................
  52b0: 00000000 00000000 00000000 00000000  ................
  52c0: 00000000 00000000 00000000 00000000  ................
  52d0: 00000000 00000000 00000000 00000000  ................
  52e0: 00000000 00000000 00000000 00000000  ................
  52f0: 00000000 00000000 00000000 00000000  ................
  5300: 00000000 00000000 00000000 00000000  ................
  5310: 00000000 00000000 00000000 00000000  ................
  5320: 00000000 00000000 00000000 00000000  ................
  5330: 00000000 00000000 00000000 00000000  ................
  5340: 00000000 00000000 00000000 00000000  ................
  5350: 00000000 00000000 00000000 00000000  ................
  5360: 00000000 00000000 00000000 00000000  ................
  5370: 00000000 00000000 00000000 00000000  ................
  5380: 00000000 00000000 00000000 00000000  ................
  5390: 00000000 00000000 00000000 00000000  ................
  53a0: 00000000 00000000 00000000 00000000  ................
  53b0: 00000000 00000000 00000000 00000000  ................
  53c0: 00000000 00000000 00000000 00000000  ................
  53d0: 00000000 00000000 00000000 00000000  ................
  53e0: 00000000 00000000 00000000 00000000  ................
  53f0: 00000000 00000000 00000000 00000000  ................
  5400: 00000000 00000000 00000000 00000000  ................
  5410: 00000000 00000000 00000000 00000000  ................
  5420: 00000000 00000000 00000000 00000000  ................
  5430: 00000000 00000000 00000000 00000000  ................
  5440: 00000000 00000000 00000000 00000000  ................
  5450: 00000000 00000000 00000000 00000000  ................
  5460: 00000000 00000000 00000000 00000000  ................
  5470: 00000000 00000000 00000000 00000000  ................
  5480: 00000000 00000000 00000000 00000000  ................
  5490: 00000000 00000000 00000000 00000000  ................
  54a0: 00000000 00000000 00000000 00000000  ................
  54b0: 00000000 00000000 00000000 00000000  ................
  54c0: 00000000 00000000 00000000 00000000  ................
  54d0: 00000000 00000000 00000000 00000000  ................
  54e0: 00000000 00000000 00000000 00000000  ................
  54f0: 00000000 00000000 00000000 00000000  ................
  5500: 00000000 00000000 00000000 00000000  ................
  5510: 00000000 00000000 00000000 00000000  ................
  5520: 00000000 00000000 00000000 00000000  ................
  5530: 00000000 00000000 00000000 00000000  ................
  5540: 00000000 00000000 00000000 00000000  ................
  5550: 00000000 00000000 00000000 00000000  ................
  5560: 00000000 00000000 00000000 00000000  ................
  5570: 00000000 00000000 00000000 00000000  ................
  5580: 00000000 00000000 00000000 00000000  ................
  5590: 00000000 00000000 00000000 00000000  ................
  55a0: 00000000 00000000 00000000 00000000  ................
  55b0: 00000000 00000000 00000000 00000000  ................
  55c0: 00000000 00000000 00000000 00000000  ................
  55d0: 00000000 00000000 00000000 00000000  ................
  55e0: 00000000 00000000 00000000 00000000  ................
  55f0: 00000000 00000000 00000000 00000000  ................
  5600: 00000000 00000000 00000000 00000000  ................
  5610: 00000000 00000000 00000000 00000000  ................
  5620: 00000000 00000000 00000000 00000000  ................
  5630: 00000000 00000000 00000000 00000000  ................
  5640: 00000000 00000000 00000000 00000000  ................
  5650: 00000000 00000000 00000000 00000000  ................
  5660: 00000000 00000000 00000000 00000000  ................
  5670: 00000000 00000000 00000000 00000000  ................
  5680: 00000000 00000000 00000000 00000000  ................
  5690: 00000000 00000000 00000000 00000000  ................
  56a0: 00000000 00000000 00000000 00000000  ................
  56b0: 00000000 00000000 00000000 00000000  ................
  56c0: 00000000 00000000 00000000 00000000  ................
  56d0: 00000000 00000000 00000000 00000000  ................
  56e0: 00000000 00000000 00000000 00000000  ................
  56f0: 00000000 00000000 00000000 00000000  ................
  5700: 00000000 00000000 00000000 00000000  ................
  5710: 00000000 00000000 00000000 00000000  ................
  5720: 00000000 00000000 00000000 00000000  ................
  5730: 00000000 00000000 00000000 00000000  ................
  5740: 00000000 00000000 00000000 00000000  ................
  5750: 00000000 00000000 00000000 00000000  ................
  5760: 00000000 00000000 00000000 00000000  ................
  5770: 00000000 00000000 00000000 00000000  ................
  5780: 00000000 00000000 00000000 00000000  ................
  5790: 00000000 00000000 00000000 00000000  ................
  57a0: 00000000 00000000 00000000 00000000  ................
  57b0: 00000000 00000000 00000000 00000000  ................
  57c0: 00000000 00000000 00000000 00000000  ................
  57d0: 00000000 00000000 00000000 00000000  ................
  57e0: 00000000 00000000 00000000 00000000  ................
  57f0: 00000000 00000000 00000000 00000000  ................
  5800: 00000000 00000000 00000000 00000000  ................
  5810: 00000000 00000000 00000000 00000000  ................
  5820: 00000000 00000000 00000000 00000000  ................
  5830: 00000000 00000000 00000000 00000000  ................
  5840: 00000000 00000000 00000000 00000000  ................
  5850: 00000000 00000000 00000000 00000000  ................
  5860: 00000000 00000000 00000000 00000000  ................
  5870: 00000000 00000000 00000000 00000000  ................
  5880: 00000000 00000000 00000000 00000000  ................
  5890: 00000000 00000000 00000000 00000000  ................
  58a0: 00000000 00000000 00000000 00000000  ................
  58b0: 00000000 00000000 00000000 00000000  ................
  58c0: 00000000 00000000 00000000 00000000  ................
  58d0: 00000000 00000000 00000000 00000000  ................
  58e0: 00000000 00000000 00000000 00000000  ................
  58f0: 00000000 00000000 00000000 00000000  ................
  5900: 00000000 00000000 00000000 00000000  ................
  5910: 00000000 00000000 00000000 00000000  ................
  5920: 00000000 00000000 00000000 00000000  ................
  5930: 00000000 00000000 00000000 00000000  ................
  5940: 00000000 00000000 00000000 00000000  ................
  5950: 00000000 00000000 00000000 00000000  ................
  5960: 00000000 00000000 00000000 00000000  ................
  5970: 00000000 00000000 00000000 00000000  ................
  5980: 00000000 00000000 00000000 00000000  ................
  5990: 00000000 00000000 00000000 00000000  ................
  59a0: 00000000 00000000 00000000 00000000  ................
  59b0: 00000000 00000000 00000000 00000000  ................
  59c0: 00000000 00000000 00000000 00000000  ................
  59d0: 00000000 00000000 00000000 00000000  ................
  59e0: 00000000 00000000 00000000 00000000  ................
  59f0: 00000000 00000000 00000000 00000000  ................
  5a00: 00000000 00000000 00000000 00000000  ................
  5a10: 00000000 00000000 00000000 00000000  ................
  5a20: 00000000 00000000 00000000 00000000  ................
  5a30: 00000000 00000000 00000000 00000000  ................
